{
  "_format": "hh-sol-artifact-1",
  "contractName": "AmarumNFT",
  "sourceName": "contracts/Amarum.sol",
  "abi": [
    {
      "inputs": [],
      "stateMutability": "nonpayable",
      "type": "constructor"
    },
    {
      "anonymous": false,
      "inputs": [
        {
          "indexed": true,
          "internalType": "uint256",
          "name": "tokenId",
          "type": "uint256"
        },
        {
          "indexed": false,
          "internalType": "address",
          "name": "author",
          "type": "address"
        },
        {
          "indexed": false,
          "internalType": "address",
          "name": "owner",
          "type": "address"
        },
        {
          "indexed": false,
          "internalType": "uint256",
          "name": "dateCreated",
          "type": "uint256"
        },
        {
          "indexed": false,
          "internalType": "bool",
          "name": "approved",
          "type": "bool"
        }
      ],
      "name": "AmarumItemCreated",
      "type": "event"
    },
    {
      "anonymous": false,
      "inputs": [
        {
          "indexed": true,
          "internalType": "address",
          "name": "owner",
          "type": "address"
        },
        {
          "indexed": true,
          "internalType": "address",
          "name": "approved",
          "type": "address"
        },
        {
          "indexed": true,
          "internalType": "uint256",
          "name": "tokenId",
          "type": "uint256"
        }
      ],
      "name": "Approval",
      "type": "event"
    },
    {
      "anonymous": false,
      "inputs": [
        {
          "indexed": true,
          "internalType": "uint256",
          "name": "tokenId",
          "type": "uint256"
        },
        {
          "indexed": false,
          "internalType": "address",
          "name": "admin",
          "type": "address"
        },
        {
          "indexed": false,
          "internalType": "uint256",
          "name": "dateApproved",
          "type": "uint256"
        }
      ],
      "name": "ApprovalCreated",
      "type": "event"
    },
    {
      "anonymous": false,
      "inputs": [
        {
          "indexed": true,
          "internalType": "address",
          "name": "owner",
          "type": "address"
        },
        {
          "indexed": true,
          "internalType": "address",
          "name": "operator",
          "type": "address"
        },
        {
          "indexed": false,
          "internalType": "bool",
          "name": "approved",
          "type": "bool"
        }
      ],
      "name": "ApprovalForAll",
      "type": "event"
    },
    {
      "anonymous": false,
      "inputs": [
        {
          "indexed": true,
          "internalType": "address",
          "name": "from",
          "type": "address"
        },
        {
          "indexed": true,
          "internalType": "address",
          "name": "to",
          "type": "address"
        },
        {
          "indexed": true,
          "internalType": "uint256",
          "name": "tokenId",
          "type": "uint256"
        }
      ],
      "name": "Transfer",
      "type": "event"
    },
    {
      "anonymous": false,
      "inputs": [
        {
          "indexed": true,
          "internalType": "uint256",
          "name": "vId",
          "type": "uint256"
        },
        {
          "indexed": false,
          "internalType": "uint256",
          "name": "tokenId",
          "type": "uint256"
        },
        {
          "indexed": false,
          "internalType": "address",
          "name": "visitor",
          "type": "address"
        }
      ],
      "name": "ViewItemCreated",
      "type": "event"
    },
    {
      "inputs": [
        {
          "internalType": "string",
          "name": "",
          "type": "string"
        }
      ],
      "name": "AmarumRepos",
      "outputs": [
        {
          "internalType": "string",
          "name": "url",
          "type": "string"
        },
        {
          "internalType": "string",
          "name": "dealId",
          "type": "string"
        },
        {
          "internalType": "string",
          "name": "pieceCid",
          "type": "string"
        },
        {
          "internalType": "address",
          "name": "spAddress",
          "type": "address"
        },
        {
          "internalType": "uint256",
          "name": "numberOfVotes",
          "type": "uint256"
        },
        {
          "internalType": "bool",
          "name": "stored",
          "type": "bool"
        },
        {
          "internalType": "bool",
          "name": "accepted",
          "type": "bool"
        },
        {
          "internalType": "uint256",
          "name": "yesVotes",
          "type": "uint256"
        },
        {
          "internalType": "uint256",
          "name": "noVotes",
          "type": "uint256"
        },
        {
          "internalType": "bool",
          "name": "isValue",
          "type": "bool"
        }
      ],
      "stateMutability": "view",
      "type": "function"
    },
    {
      "inputs": [],
      "name": "_itemApproved",
      "outputs": [
        {
          "internalType": "uint256",
          "name": "_value",
          "type": "uint256"
        }
      ],
      "stateMutability": "view",
      "type": "function"
    },
    {
      "inputs": [],
      "name": "_viewIds",
      "outputs": [
        {
          "internalType": "uint256",
          "name": "_value",
          "type": "uint256"
        }
      ],
      "stateMutability": "view",
      "type": "function"
    },
    {
      "inputs": [],
      "name": "admin",
      "outputs": [
        {
          "internalType": "address",
          "name": "",
          "type": "address"
        }
      ],
      "stateMutability": "view",
      "type": "function"
    },
    {
      "inputs": [],
      "name": "adminAdvanceEpoch",
      "outputs": [],
      "stateMutability": "nonpayable",
      "type": "function"
    },
    {
      "inputs": [],
      "name": "adminAdvanceStage",
      "outputs": [],
      "stateMutability": "nonpayable",
      "type": "function"
    },
    {
      "inputs": [
        {
          "internalType": "address",
          "name": "to",
          "type": "address"
        },
        {
          "internalType": "uint256",
          "name": "tokenId",
          "type": "uint256"
        }
      ],
      "name": "approve",
      "outputs": [],
      "stateMutability": "nonpayable",
      "type": "function"
    },
    {
      "inputs": [
        {
          "internalType": "address",
          "name": "owner",
          "type": "address"
        }
      ],
      "name": "balanceOf",
      "outputs": [
        {
          "internalType": "uint256",
          "name": "",
          "type": "uint256"
        }
      ],
      "stateMutability": "view",
      "type": "function"
    },
    {
      "inputs": [
        {
          "internalType": "uint256",
          "name": "tokenId",
          "type": "uint256"
        }
      ],
      "name": "createAmarumApproval",
      "outputs": [],
      "stateMutability": "nonpayable",
      "type": "function"
    },
    {
      "inputs": [
        {
          "internalType": "string",
          "name": "tokenURI",
          "type": "string"
        }
      ],
      "name": "createToken",
      "outputs": [
        {
          "internalType": "uint256",
          "name": "",
          "type": "uint256"
        }
      ],
      "stateMutability": "payable",
      "type": "function"
    },
    {
      "inputs": [
        {
          "internalType": "uint256",
          "name": "tokenId",
          "type": "uint256"
        }
      ],
      "name": "createViewItem",
      "outputs": [],
      "stateMutability": "nonpayable",
      "type": "function"
    },
    {
      "inputs": [],
      "name": "currentEpoch",
      "outputs": [
        {
          "internalType": "uint256",
          "name": "",
          "type": "uint256"
        }
      ],
      "stateMutability": "view",
      "type": "function"
    },
    {
      "inputs": [
        {
          "internalType": "address",
          "name": "",
          "type": "address"
        }
      ],
      "name": "daoMembers",
      "outputs": [
        {
          "internalType": "uint256",
          "name": "memberId",
          "type": "uint256"
        },
        {
          "internalType": "address payable",
          "name": "addr",
          "type": "address"
        },
        {
          "internalType": "uint256",
          "name": "availableVotes",
          "type": "uint256"
        },
        {
          "internalType": "uint256",
          "name": "votingPower",
          "type": "uint256"
        },
        {
          "internalType": "bool",
          "name": "isValue",
          "type": "bool"
        }
      ],
      "stateMutability": "view",
      "type": "function"
    },
    {
      "inputs": [],
      "name": "epochStage",
      "outputs": [
        {
          "internalType": "uint256",
          "name": "",
          "type": "uint256"
        }
      ],
      "stateMutability": "view",
      "type": "function"
    },
    {
      "inputs": [],
      "name": "fetchAllAmarums",
      "outputs": [
        {
          "components": [
            {
              "internalType": "uint256",
              "name": "tokenId",
              "type": "uint256"
            },
            {
              "internalType": "address payable",
              "name": "author",
              "type": "address"
            },
            {
              "internalType": "address payable",
              "name": "owner",
              "type": "address"
            },
            {
              "internalType": "uint256",
              "name": "dateCreated",
              "type": "uint256"
            },
            {
              "internalType": "bool",
              "name": "approved",
              "type": "bool"
            }
          ],
          "internalType": "struct AmarumNFT.AmarumItem[]",
          "name": "",
          "type": "tuple[]"
        }
      ],
      "stateMutability": "view",
      "type": "function"
    },
    {
      "inputs": [],
      "name": "fetchAmarumsApproved",
      "outputs": [
        {
          "components": [
            {
              "internalType": "uint256",
              "name": "tokenId",
              "type": "uint256"
            },
            {
              "internalType": "address payable",
              "name": "author",
              "type": "address"
            },
            {
              "internalType": "address payable",
              "name": "owner",
              "type": "address"
            },
            {
              "internalType": "uint256",
              "name": "dateCreated",
              "type": "uint256"
            },
            {
              "internalType": "bool",
              "name": "approved",
              "type": "bool"
            }
          ],
          "internalType": "struct AmarumNFT.AmarumItem[]",
          "name": "",
          "type": "tuple[]"
        }
      ],
      "stateMutability": "view",
      "type": "function"
    },
    {
      "inputs": [
        {
          "internalType": "uint256",
          "name": "tokenId",
          "type": "uint256"
        }
      ],
      "name": "fetchItemViews",
      "outputs": [
        {
          "internalType": "uint256",
          "name": "",
          "type": "uint256"
        }
      ],
      "stateMutability": "view",
      "type": "function"
    },
    {
      "inputs": [],
      "name": "fetchMyAmarums",
      "outputs": [
        {
          "components": [
            {
              "internalType": "uint256",
              "name": "tokenId",
              "type": "uint256"
            },
            {
              "internalType": "address payable",
              "name": "author",
              "type": "address"
            },
            {
              "internalType": "address payable",
              "name": "owner",
              "type": "address"
            },
            {
              "internalType": "uint256",
              "name": "dateCreated",
              "type": "uint256"
            },
            {
              "internalType": "bool",
              "name": "approved",
              "type": "bool"
            }
          ],
          "internalType": "struct AmarumNFT.AmarumItem[]",
          "name": "",
          "type": "tuple[]"
        }
      ],
      "stateMutability": "view",
      "type": "function"
    },
    {
      "inputs": [
        {
          "internalType": "uint256",
          "name": "_tokenId",
          "type": "uint256"
        }
      ],
      "name": "fetchOneAmarum",
      "outputs": [
        {
          "components": [
            {
              "internalType": "uint256",
              "name": "tokenId",
              "type": "uint256"
            },
            {
              "internalType": "address payable",
              "name": "author",
              "type": "address"
            },
            {
              "internalType": "address payable",
              "name": "owner",
              "type": "address"
            },
            {
              "internalType": "uint256",
              "name": "dateCreated",
              "type": "uint256"
            },
            {
              "internalType": "bool",
              "name": "approved",
              "type": "bool"
            }
          ],
          "internalType": "struct AmarumNFT.AmarumItem[]",
          "name": "",
          "type": "tuple[]"
        }
      ],
      "stateMutability": "view",
      "type": "function"
    },
    {
      "inputs": [],
      "name": "fetchTotalViews",
      "outputs": [
        {
          "internalType": "uint256",
          "name": "",
          "type": "uint256"
        }
      ],
      "stateMutability": "view",
      "type": "function"
    },
    {
      "inputs": [
        {
          "internalType": "uint256",
          "name": "tokenId",
          "type": "uint256"
        }
      ],
      "name": "getApproved",
      "outputs": [
        {
          "internalType": "address",
          "name": "",
          "type": "address"
        }
      ],
      "stateMutability": "view",
      "type": "function"
    },
    {
      "inputs": [
        {
          "internalType": "address",
          "name": "owner",
          "type": "address"
        },
        {
          "internalType": "address",
          "name": "operator",
          "type": "address"
        }
      ],
      "name": "isApprovedForAll",
      "outputs": [
        {
          "internalType": "bool",
          "name": "",
          "type": "bool"
        }
      ],
      "stateMutability": "view",
      "type": "function"
    },
    {
      "inputs": [],
      "name": "joinDao",
      "outputs": [],
      "stateMutability": "payable",
      "type": "function"
    },
    {
      "inputs": [
        {
          "internalType": "string",
          "name": "url",
          "type": "string"
        },
        {
          "internalType": "string",
          "name": "dealId",
          "type": "string"
        },
        {
          "internalType": "string",
          "name": "pieceCid",
          "type": "string"
        }
      ],
      "name": "minerSubmission",
      "outputs": [],
      "stateMutability": "nonpayable",
      "type": "function"
    },
    {
      "inputs": [],
      "name": "name",
      "outputs": [
        {
          "internalType": "string",
          "name": "",
          "type": "string"
        }
      ],
      "stateMutability": "view",
      "type": "function"
    },
    {
      "inputs": [
        {
          "internalType": "uint256",
          "name": "tokenId",
          "type": "uint256"
        }
      ],
      "name": "ownerOf",
      "outputs": [
        {
          "internalType": "address",
          "name": "",
          "type": "address"
        }
      ],
      "stateMutability": "view",
      "type": "function"
    },
    {
      "inputs": [
        {
          "internalType": "address",
          "name": "from",
          "type": "address"
        },
        {
          "internalType": "address",
          "name": "to",
          "type": "address"
        },
        {
          "internalType": "uint256",
          "name": "tokenId",
          "type": "uint256"
        }
      ],
      "name": "safeTransferFrom",
      "outputs": [],
      "stateMutability": "nonpayable",
      "type": "function"
    },
    {
      "inputs": [
        {
          "internalType": "address",
          "name": "from",
          "type": "address"
        },
        {
          "internalType": "address",
          "name": "to",
          "type": "address"
        },
        {
          "internalType": "uint256",
          "name": "tokenId",
          "type": "uint256"
        },
        {
          "internalType": "bytes",
          "name": "data",
          "type": "bytes"
        }
      ],
      "name": "safeTransferFrom",
      "outputs": [],
      "stateMutability": "nonpayable",
      "type": "function"
    },
    {
      "inputs": [
        {
          "internalType": "address",
          "name": "operator",
          "type": "address"
        },
        {
          "internalType": "bool",
          "name": "approved",
          "type": "bool"
        }
      ],
      "name": "setApprovalForAll",
      "outputs": [],
      "stateMutability": "nonpayable",
      "type": "function"
    },
    {
      "inputs": [
        {
          "internalType": "bytes4",
          "name": "interfaceId",
          "type": "bytes4"
        }
      ],
      "name": "supportsInterface",
      "outputs": [
        {
          "internalType": "bool",
          "name": "",
          "type": "bool"
        }
      ],
      "stateMutability": "view",
      "type": "function"
    },
    {
      "inputs": [],
      "name": "symbol",
      "outputs": [
        {
          "internalType": "string",
          "name": "",
          "type": "string"
        }
      ],
      "stateMutability": "view",
      "type": "function"
    },
    {
      "inputs": [
        {
          "internalType": "uint256",
          "name": "tokenId",
          "type": "uint256"
        }
      ],
      "name": "tokenURI",
      "outputs": [
        {
          "internalType": "string",
          "name": "",
          "type": "string"
        }
      ],
      "stateMutability": "view",
      "type": "function"
    },
    {
      "inputs": [],
      "name": "totalVotes",
      "outputs": [
        {
          "internalType": "uint256",
          "name": "",
          "type": "uint256"
        }
      ],
      "stateMutability": "view",
      "type": "function"
    },
    {
      "inputs": [
        {
          "internalType": "address",
          "name": "from",
          "type": "address"
        },
        {
          "internalType": "address",
          "name": "to",
          "type": "address"
        },
        {
          "internalType": "uint256",
          "name": "tokenId",
          "type": "uint256"
        }
      ],
      "name": "transferFrom",
      "outputs": [],
      "stateMutability": "nonpayable",
      "type": "function"
    },
    {
      "inputs": [
        {
          "internalType": "string",
          "name": "url",
          "type": "string"
        }
      ],
      "name": "voteForRepo",
      "outputs": [],
      "stateMutability": "nonpayable",
      "type": "function"
    },
    {
      "inputs": [
        {
          "internalType": "uint256",
          "name": "value",
          "type": "uint256"
        }
      ],
      "name": "withdraw",
      "outputs": [],
      "stateMutability": "nonpayable",
      "type": "function"
    }
  ],
  "bytecode": "0x60806040523480156200001157600080fd5b506040518060400160405280601481526020017f416d6172756d20566964656f2d446174617365740000000000000000000000008152506040518060400160405280600381526020016256445360e81b815250816000908162000075919062000154565b50600162000084828262000154565b5050600b8054336001600160a01b03199182168117909255600c805490911690911790555062000220565b634e487b7160e01b600052604160045260246000fd5b600181811c90821680620000da57607f821691505b602082108103620000fb57634e487b7160e01b600052602260045260246000fd5b50919050565b601f8211156200014f57600081815260208120601f850160051c810160208610156200012a5750805b601f850160051c820191505b818110156200014b5782815560010162000136565b5050505b505050565b81516001600160401b03811115620001705762000170620000af565b6200018881620001818454620000c5565b8462000101565b602080601f831160018114620001c05760008415620001a75750858301515b600019600386901b1c1916600185901b1785556200014b565b600085815260208120601f198616915b82811015620001f157888601518255948401946001909101908401620001d0565b5085821015620002105787850151600019600388901b60f8161c191681555b5050505050600190811b01905550565b61308280620002306000396000f3fe60806040526004361061020f5760003560e01c806384df677e11610118578063c87b56dd116100a0578063e985e9c51161006f578063e985e9c51461063c578063f55be0861461065c578063f851a44014610671578063fef6b32714610691578063ffcb4009146106a857600080fd5b8063c87b56dd146105df578063d69b36f8146105ff578063d6eb54861461061f578063dd61fc891461063457600080fd5b806395d89b41116100e757806395d89b4114610555578063999136d01461056a578063a22cb4651461057f578063b7ebf2351461059f578063b88d4fde146105bf57600080fd5b806384df677e146104565780638727f7201461048c5780638b0f74a6146104ac578063959068ea146104cc57600080fd5b80633152d38b1161019b57806345576f941161016a57806345576f94146103d857806361ca6cc3146103eb5780636352211e1461040057806370a0823114610420578063766718081461044057600080fd5b80633152d38b1461036157806338c1ee7f146103815780633c8f28231461039857806342842e0e146103b857600080fd5b80630d15fd77116101e25780630d15fd77146102c55780631407a237146102e957806321ab018a1461030b57806323b872dd146103215780632e1a7d4d1461034157600080fd5b806301ffc9a71461021457806306fdde0314610249578063081812fc1461026b578063095ea7b3146102a3575b600080fd5b34801561022057600080fd5b5061023461022f36600461285f565b6106bd565b60405190151581526020015b60405180910390f35b34801561025557600080fd5b5061025e61070f565b60405161024091906128cc565b34801561027757600080fd5b5061028b6102863660046128df565b6107a1565b6040516001600160a01b039091168152602001610240565b3480156102af57600080fd5b506102c36102be366004612914565b6107c8565b005b3480156102d157600080fd5b506102db600f5481565b604051908152602001610240565b3480156102f557600080fd5b506102fe6108e2565b604051610240919061293e565b34801561031757600080fd5b506102db600e5481565b34801561032d57600080fd5b506102c361033c3660046129ba565b610a4c565b34801561034d57600080fd5b506102c361035c3660046128df565b610a7d565b34801561036d57600080fd5b506102c361037c366004612aa2565b610bc4565b34801561038d57600080fd5b50600a546102db9081565b3480156103a457600080fd5b506102c36103b33660046128df565b610f79565b3480156103c457600080fd5b506102c36103d33660046129ba565b61102a565b6102db6103e6366004612b2a565b611045565b3480156103f757600080fd5b506102c361107f565b34801561040c57600080fd5b5061028b61041b3660046128df565b6110c3565b34801561042c57600080fd5b506102db61043b366004612b5f565b611123565b34801561044c57600080fd5b506102db600d5481565b34801561046257600080fd5b50610476610471366004612b2a565b6111a9565b6040516102409a99989796959493929190612b7a565b34801561049857600080fd5b506102db6104a73660046128df565b6113ae565b3480156104b857600080fd5b506102fe6104c73660046128df565b611417565b3480156104d857600080fd5b506105236104e7366004612b5f565b6010602052600090815260409020805460018201546002830154600384015460049094015492936001600160a01b039092169290919060ff1685565b604080519586526001600160a01b0390941660208601529284019190915260608301521515608082015260a001610240565b34801561056157600080fd5b5061025e6115bf565b34801561057657600080fd5b506102c36115ce565b34801561058b57600080fd5b506102c361059a366004612bfc565b61160b565b3480156105ab57600080fd5b506102c36105ba366004612b2a565b611616565b3480156105cb57600080fd5b506102c36105da366004612c38565b6118da565b3480156105eb57600080fd5b5061025e6105fa3660046128df565b611912565b34801561060b57600080fd5b506102c361061a3660046128df565b611a22565b34801561062b57600080fd5b506102fe611ab4565b6102c3611c68565b34801561064857600080fd5b50610234610657366004612cb4565b611d3f565b34801561066857600080fd5b506102db611d6d565b34801561067d57600080fd5b50600c5461028b906001600160a01b031681565b34801561069d57600080fd5b506009546102db9081565b3480156106b457600080fd5b506102fe611d79565b60006001600160e01b031982166380ac58cd60e01b14806106ee57506001600160e01b03198216635b5e139f60e01b145b8061070957506301ffc9a760e01b6001600160e01b03198316145b92915050565b60606000805461071e90612ce7565b80601f016020809104026020016040519081016040528092919081815260200182805461074a90612ce7565b80156107975780601f1061076c57610100808354040283529160200191610797565b820191906000526020600020905b81548152906001019060200180831161077a57829003601f168201915b5050505050905090565b60006107ac82611f27565b506000908152600460205260409020546001600160a01b031690565b60006107d3826110c3565b9050806001600160a01b0316836001600160a01b0316036108455760405162461bcd60e51b815260206004820152602160248201527f4552433732313a20617070726f76616c20746f2063757272656e74206f776e656044820152603960f91b60648201526084015b60405180910390fd5b336001600160a01b038216148061086157506108618133611d3f565b6108d35760405162461bcd60e51b815260206004820152603e60248201527f4552433732313a20617070726f76652063616c6c6572206973206e6f7420746f60448201527f6b656e206f776e6572206e6f7220617070726f76656420666f7220616c6c0000606482015260840161083c565b6108dd8383611f86565b505050565b606060006108ef60075490565b905060006108fc60075490565b90506000808267ffffffffffffffff81111561091a5761091a6129f6565b60405190808252806020026020018201604052801561095357816020015b61094061281b565b8152602001906001900390816109385790505b50905060005b84811015610a43573060126000610971846001612d37565b81526020810191909152604001600020600201546001600160a01b031603610a315760006109a0826001612d37565b600081815260126020908152604091829020825160a0810184528154815260018201546001600160a01b039081169382019390935260028201549092169282019290925260038201546060820152600482015460ff161515608082015285519293509091859087908110610a1657610a16612d4a565b6020908102919091010152610a2c600186612d37565b945050505b80610a3b81612d60565b915050610959565b50949350505050565b610a563382611ff4565b610a725760405162461bcd60e51b815260040161083c90612d79565b6108dd838383612052565b600b546001600160a01b03163314610ad75760405162461bcd60e51b815260206004820152601860248201527f41646472657373206973206e6f7420746865206f776e65720000000000000000604482015260640161083c565b47811115610b275760405162461bcd60e51b815260206004820152601a60248201527f56616c756520686967686572207468616e2062616c616e63652e000000000000604482015260640161083c565b600b546040516000916001600160a01b03169083908381818185875af1925050503d8060008114610b74576040519150601f19603f3d011682016040523d82523d6000602084013e610b79565b606091505b5050905080610bc05760405162461bcd60e51b815260206004820152601360248201527254686572652077617320616e206572726f722160681b604482015260640161083c565b5050565b600e54600214610c225760405162461bcd60e51b815260206004820152602360248201527f496e636f727265637420737461676520666f72206d696e65725375626d69737360448201526234b7b760e91b606482015260840161083c565b6000601184604051610c349190612dc7565b908152602001604051809103902060405180610140016040529081600082018054610c5e90612ce7565b80601f0160208091040260200160405190810160405280929190818152602001828054610c8a90612ce7565b8015610cd75780601f10610cac57610100808354040283529160200191610cd7565b820191906000526020600020905b815481529060010190602001808311610cba57829003601f168201915b50505050508152602001600182018054610cf090612ce7565b80601f0160208091040260200160405190810160405280929190818152602001828054610d1c90612ce7565b8015610d695780601f10610d3e57610100808354040283529160200191610d69565b820191906000526020600020905b815481529060010190602001808311610d4c57829003601f168201915b50505050508152602001600282018054610d8290612ce7565b80601f0160208091040260200160405190810160405280929190818152602001828054610dae90612ce7565b8015610dfb5780601f10610dd057610100808354040283529160200191610dfb565b820191906000526020600020905b815481529060010190602001808311610dde57829003601f168201915b505050918352505060038201546001600160a01b0316602082015260048201546040820152600582015460ff80821615156060840152610100909104811615156080830152600683015460a0830152600783015460c0830152600890920154909116151560e09091015261012081015190915015610e8f576020810183905260408101829052600160a08201523360608201525b80601185604051610ea09190612dc7565b90815260405190819003602001902081518190610ebd9082612e31565b5060208201516001820190610ed29082612e31565b5060408201516002820190610ee79082612e31565b5060608201516003820180546001600160a01b0319166001600160a01b039092169190911790556080820151600482015560a082015160058201805460c085015161ffff1990911692151561ff00191692909217610100921515830217905560e083015160068301558201516007820155610120909101516008909101805460ff191691151591909117905550505050565b610f87600980546001019055565b6000610f9260095490565b6040805160608101825282815260208082018681523383850181815260008781526013855286902094518555915160018501559051600290930180546001600160a01b0319166001600160a01b039094169390931790925582518681529081019190915291925082917f76eeab97092ad834df0b561eae45cd54f5583ebef4240be2483d115d9fb4ed61910160405180910390a25050565b6108dd838383604051806020016040528060008152506118da565b6000611055600780546001019055565b600061106060075490565b905061106c33826121ee565b6110768184612330565b610709816123c3565b600c546001600160a01b031633146110a95760405162461bcd60e51b815260040161083c90612ef1565b6001600e60008282546110bc9190612d37565b9091555050565b6000818152600260205260408120546001600160a01b0316806107095760405162461bcd60e51b8152602060048201526018602482015277115490cdcc8c4e881a5b9d985b1a59081d1bdad95b88125160421b604482015260640161083c565b60006001600160a01b03821661118d5760405162461bcd60e51b815260206004820152602960248201527f4552433732313a2061646472657373207a65726f206973206e6f7420612076616044820152683634b21037bbb732b960b91b606482015260840161083c565b506001600160a01b031660009081526003602052604090205490565b80516020818301810180516011825292820191909301209152805481906111cf90612ce7565b80601f01602080910402602001604051908101604052809291908181526020018280546111fb90612ce7565b80156112485780601f1061121d57610100808354040283529160200191611248565b820191906000526020600020905b81548152906001019060200180831161122b57829003601f168201915b50505050509080600101805461125d90612ce7565b80601f016020809104026020016040519081016040528092919081815260200182805461128990612ce7565b80156112d65780601f106112ab576101008083540402835291602001916112d6565b820191906000526020600020905b8154815290600101906020018083116112b957829003601f168201915b5050505050908060020180546112eb90612ce7565b80601f016020809104026020016040519081016040528092919081815260200182805461131790612ce7565b80156113645780601f1061133957610100808354040283529160200191611364565b820191906000526020600020905b81548152906001019060200180831161134757829003601f168201915b505050506003830154600484015460058501546006860154600787015460089097015495966001600160a01b039094169592945060ff80831694610100909304811693919291168a565b6000806113ba60095490565b90506000805b8281101561140f5784601360006113d8846001612d37565b815260200190815260200160002060010154036113fd576113fa600183612d37565b91505b8061140781612d60565b9150506113c0565b509392505050565b6060600061142460075490565b905060008060005b8381101561147b578560126000611444846001612d37565b8152602001908152602001600020600001540361146957611466600184612d37565b92505b8061147381612d60565b91505061142c565b5060008267ffffffffffffffff811115611497576114976129f6565b6040519080825280602002602001820160405280156114d057816020015b6114bd61281b565b8152602001906001900390816114b55790505b50905060005b848110156115b55786601260006114ee846001612d37565b815260200190815260200160002060000154036115a3576000611512826001612d37565b600081815260126020908152604091829020825160a0810184528154815260018201546001600160a01b039081169382019390935260028201549092169282019290925260038201546060820152600482015460ff16151560808201528551929350909185908790811061158857611588612d4a565b602090810291909101015261159e600186612d37565b945050505b806115ad81612d60565b9150506114d6565b5095945050505050565b60606001805461071e90612ce7565b600c546001600160a01b031633146115f85760405162461bcd60e51b815260040161083c90612ef1565b6001600d60008282546110bc9190612d37565b610bc03383836124a4565b3360009081526010602052604090206004015460ff161561178057600e546001146116835760405162461bcd60e51b815260206004820152601f60248201527f496e636f727265637420737461676520666f7220766f7465466f725265706f00604482015260640161083c565b6011816040516116939190612dc7565b9081526040519081900360200190206008015460ff16156117835733600090815260106020526040908190206002015490516011906116d3908490612dc7565b908152602001604051809103902060040160008282546116f39190612d37565b9091555050336000908152601060205260408120600290810191909155600f5461171d9190612f36565b60118260405161172d9190612dc7565b90815260200160405180910390206004015411156117805760016011826040516117579190612dc7565b90815260405190819003602001902060050180549115156101000261ff00199092169190911790555b50565b60408051610140810182528281528151602081810184526000808352818401929092528351808201855282815283850152606083018290523382526010905282812060020154608083015260a0820181905260c0820181905260e08201819052610100820152600161012082015290518190601190611803908590612dc7565b908152604051908190036020019020815181906118209082612e31565b50602082015160018201906118359082612e31565b506040820151600282019061184a9082612e31565b5060608201516003820180546001600160a01b0319166001600160a01b039092169190911790556080820151600482015560a082015160058201805460c085015161ffff1990911692151561ff00191692909217610100921515830217905560e083015160068301558201516007820155610120909101516008909101805460ff19169115159190911790555050565b6118e43383611ff4565b6119005760405162461bcd60e51b815260040161083c90612d79565b61190c84848484612572565b50505050565b606061191d82611f27565b6000828152600660205260408120805461193690612ce7565b80601f016020809104026020016040519081016040528092919081815260200182805461196290612ce7565b80156119af5780601f10611984576101008083540402835291602001916119af565b820191906000526020600020905b81548152906001019060200180831161199257829003601f168201915b5050505050905060006119cd60408051602081019091526000815290565b905080516000036119df575092915050565b815115611a115780826040516020016119f9929190612f4a565b60405160208183030381529060405292505050919050565b611a1a846125a5565b949350505050565b600c546001600160a01b03163314611a4c5760405162461bcd60e51b815260040161083c90612ef1565b6000818152601260205260409020600401805460ff19166001179055611a76600a80546001019055565b6040805133815242602082015282917f7b3e57f92a64bfa12c15cfbeddc70d341fcd97a16b9e40d978ac7250d653de1891015b60405180910390a250565b60606000611ac160075490565b905060008060005b83811015611b23573360126000611ae1846001612d37565b81526020810191909152604001600020600101546001600160a01b031603611b1157611b0e600184612d37565b92505b80611b1b81612d60565b915050611ac9565b5060008267ffffffffffffffff811115611b3f57611b3f6129f6565b604051908082528060200260200182016040528015611b7857816020015b611b6561281b565b815260200190600190039081611b5d5790505b50905060005b84811015610a43573360126000611b96846001612d37565b81526020810191909152604001600020600101546001600160a01b031603611c56576000611bc5826001612d37565b600081815260126020908152604091829020825160a0810184528154815260018201546001600160a01b039081169382019390935260028201549092169282019290925260038201546060820152600482015460ff161515608082015285519293509091859087908110611c3b57611c3b612d4a565b6020908102919091010152611c51600186612d37565b945050505b80611c6081612d60565b915050611b7e565b611c76600880546001019055565b6000611c8160085490565b905060006040518060a00160405280838152602001336001600160a01b03168152602001600181526020016001815260200160011515815250905034600f6000828254611cce9190612d37565b90915550503360009081526010602090815260409182902083518155908301516001820180546001600160a01b0319166001600160a01b03909216919091179055908201516002820155606082015160038201556080909101516004909101805460ff191691151591909117905550565b6001600160a01b03918216600090815260056020908152604080832093909416825291909152205460ff1690565b60008061070960095490565b60606000611d8660075490565b905060008060005b83811015611de55760126000611da5836001612d37565b815260208101919091526040016000206004015460ff161515600103611dd357611dd0600184612d37565b92505b80611ddd81612d60565b915050611d8e565b5060008267ffffffffffffffff811115611e0157611e016129f6565b604051908082528060200260200182016040528015611e3a57816020015b611e2761281b565b815260200190600190039081611e1f5790505b50905060005b84811015610a435760126000611e57836001612d37565b815260208101919091526040016000206004015460ff161515600103611f15576000611e84826001612d37565b600081815260126020908152604091829020825160a0810184528154815260018201546001600160a01b039081169382019390935260028201549092169282019290925260038201546060820152600482015460ff161515608082015285519293509091859087908110611efa57611efa612d4a565b6020908102919091010152611f10600186612d37565b945050505b80611f1f81612d60565b915050611e40565b6000818152600260205260409020546001600160a01b03166117805760405162461bcd60e51b8152602060048201526018602482015277115490cdcc8c4e881a5b9d985b1a59081d1bdad95b88125160421b604482015260640161083c565b600081815260046020526040902080546001600160a01b0319166001600160a01b0384169081179091558190611fbb826110c3565b6001600160a01b03167f8c5be1e5ebec7d5bd14f71427d1e84f3dd0314c0f7b2291e5b200ac8c7c3b92560405160405180910390a45050565b600080612000836110c3565b9050806001600160a01b0316846001600160a01b0316148061202757506120278185611d3f565b80611a1a5750836001600160a01b0316612040846107a1565b6001600160a01b031614949350505050565b826001600160a01b0316612065826110c3565b6001600160a01b0316146120c95760405162461bcd60e51b815260206004820152602560248201527f4552433732313a207472616e736665722066726f6d20696e636f72726563742060448201526437bbb732b960d91b606482015260840161083c565b6001600160a01b03821661212b5760405162461bcd60e51b8152602060048201526024808201527f4552433732313a207472616e7366657220746f20746865207a65726f206164646044820152637265737360e01b606482015260840161083c565b612136600082611f86565b6001600160a01b038316600090815260036020526040812080546001929061215f908490612f79565b90915550506001600160a01b038216600090815260036020526040812080546001929061218d908490612d37565b909155505060008181526002602052604080822080546001600160a01b0319166001600160a01b0386811691821790925591518493918716917fddf252ad1be2c89b69c2b068fc378daa952ba7f163c4a11628f55a4df523b3ef91a4505050565b6001600160a01b0382166122445760405162461bcd60e51b815260206004820181905260248201527f4552433732313a206d696e7420746f20746865207a65726f2061646472657373604482015260640161083c565b6000818152600260205260409020546001600160a01b0316156122a95760405162461bcd60e51b815260206004820152601c60248201527f4552433732313a20746f6b656e20616c7265616479206d696e74656400000000604482015260640161083c565b6001600160a01b03821660009081526003602052604081208054600192906122d2908490612d37565b909155505060008181526002602052604080822080546001600160a01b0319166001600160a01b03861690811790915590518392907fddf252ad1be2c89b69c2b068fc378daa952ba7f163c4a11628f55a4df523b3ef908290a45050565b6000828152600260205260409020546001600160a01b03166123ab5760405162461bcd60e51b815260206004820152602e60248201527f45524337323155524953746f726167653a2055524920736574206f66206e6f6e60448201526d32bc34b9ba32b73a103a37b5b2b760911b606482015260840161083c565b60008281526006602052604090206108dd8282612e31565b6040805160a0810182528281523360208083018281523084860181815242606087019081526000608088018181528a82526012909652979097209551865591516001860180546001600160a01b03199081166001600160a01b0393841617909155925160028701805490941691161790915593516003840155516004909201805460ff19169215159290921790915561245c9183612052565b6040805133815230602082015242918101919091526000606082015281907fff513e2fc6d4a0ccdfa78b3926e8b23bc6e2ad1329d9cd8a9cdee77c75d14b6590608001611aa9565b816001600160a01b0316836001600160a01b0316036125055760405162461bcd60e51b815260206004820152601960248201527f4552433732313a20617070726f766520746f2063616c6c657200000000000000604482015260640161083c565b6001600160a01b03838116600081815260056020908152604080832094871680845294825291829020805460ff191686151590811790915591519182527f17307eab39ab6107e8899845ad3d59bd9653f200f220920489ca2b5937696c31910160405180910390a3505050565b61257d848484612052565b61258984848484612619565b61190c5760405162461bcd60e51b815260040161083c90612f8c565b60606125b082611f27565b60006125c760408051602081019091526000815290565b905060008151116125e75760405180602001604052806000815250612612565b806125f18461271a565b604051602001612602929190612f4a565b6040516020818303038152906040525b9392505050565b60006001600160a01b0384163b1561270f57604051630a85bd0160e11b81526001600160a01b0385169063150b7a029061265d903390899088908890600401612fde565b6020604051808303816000875af1925050508015612698575060408051601f3d908101601f191682019092526126959181019061301b565b60015b6126f5573d8080156126c6576040519150601f19603f3d011682016040523d82523d6000602084013e6126cb565b606091505b5080516000036126ed5760405162461bcd60e51b815260040161083c90612f8c565b805181602001fd5b6001600160e01b031916630a85bd0160e11b149050611a1a565b506001949350505050565b6060816000036127415750506040805180820190915260018152600360fc1b602082015290565b8160005b811561276b578061275581612d60565b91506127649050600a83612f36565b9150612745565b60008167ffffffffffffffff811115612786576127866129f6565b6040519080825280601f01601f1916602001820160405280156127b0576020820181803683370190505b5090505b8415611a1a576127c5600183612f79565b91506127d2600a86613038565b6127dd906030612d37565b60f81b8183815181106127f2576127f2612d4a565b60200101906001600160f81b031916908160001a905350612814600a86612f36565b94506127b4565b6040805160a08101825260008082526020820181905291810182905260608101829052608081019190915290565b6001600160e01b03198116811461178057600080fd5b60006020828403121561287157600080fd5b813561261281612849565b60005b8381101561289757818101518382015260200161287f565b50506000910152565b600081518084526128b881602086016020860161287c565b601f01601f19169290920160200192915050565b60208152600061261260208301846128a0565b6000602082840312156128f157600080fd5b5035919050565b80356001600160a01b038116811461290f57600080fd5b919050565b6000806040838503121561292757600080fd5b612930836128f8565b946020939093013593505050565b602080825282518282018190526000919060409081850190868401855b828110156129ad57815180518552868101516001600160a01b03908116888701528682015116868601526060808201519086015260809081015115159085015260a0909301929085019060010161295b565b5091979650505050505050565b6000806000606084860312156129cf57600080fd5b6129d8846128f8565b92506129e6602085016128f8565b9150604084013590509250925092565b634e487b7160e01b600052604160045260246000fd5b600067ffffffffffffffff80841115612a2757612a276129f6565b604051601f8501601f19908116603f01168101908282118183101715612a4f57612a4f6129f6565b81604052809350858152868686011115612a6857600080fd5b858560208301376000602087830101525050509392505050565b600082601f830112612a9357600080fd5b61261283833560208501612a0c565b600080600060608486031215612ab757600080fd5b833567ffffffffffffffff80821115612acf57600080fd5b612adb87838801612a82565b94506020860135915080821115612af157600080fd5b612afd87838801612a82565b93506040860135915080821115612b1357600080fd5b50612b2086828701612a82565b9150509250925092565b600060208284031215612b3c57600080fd5b813567ffffffffffffffff811115612b5357600080fd5b611a1a84828501612a82565b600060208284031215612b7157600080fd5b612612826128f8565b6000610140808352612b8e8184018e6128a0565b90508281036020840152612ba2818d6128a0565b90508281036040840152612bb6818c6128a0565b6001600160a01b039a909a1660608401525050608081019690965293151560a086015291151560c085015260e08401526101008301521515610120909101529392505050565b60008060408385031215612c0f57600080fd5b612c18836128f8565b915060208301358015158114612c2d57600080fd5b809150509250929050565b60008060008060808587031215612c4e57600080fd5b612c57856128f8565b9350612c65602086016128f8565b925060408501359150606085013567ffffffffffffffff811115612c8857600080fd5b8501601f81018713612c9957600080fd5b612ca887823560208401612a0c565b91505092959194509250565b60008060408385031215612cc757600080fd5b612cd0836128f8565b9150612cde602084016128f8565b90509250929050565b600181811c90821680612cfb57607f821691505b602082108103612d1b57634e487b7160e01b600052602260045260246000fd5b50919050565b634e487b7160e01b600052601160045260246000fd5b8082018082111561070957610709612d21565b634e487b7160e01b600052603260045260246000fd5b600060018201612d7257612d72612d21565b5060010190565b6020808252602e908201527f4552433732313a2063616c6c6572206973206e6f7420746f6b656e206f776e6560408201526d1c881b9bdc88185c1c1c9bdd995960921b606082015260800190565b60008251612dd981846020870161287c565b9190910192915050565b601f8211156108dd57600081815260208120601f850160051c81016020861015612e0a5750805b601f850160051c820191505b81811015612e2957828155600101612e16565b505050505050565b815167ffffffffffffffff811115612e4b57612e4b6129f6565b612e5f81612e598454612ce7565b84612de3565b602080601f831160018114612e945760008415612e7c5750858301515b600019600386901b1c1916600185901b178555612e29565b600085815260208120601f198616915b82811015612ec357888601518255948401946001909101908401612ea4565b5085821015612ee15787850151600019600388901b60f8161c191681555b5050505050600190811b01905550565b6020808252601590820152744f6e6c792061646d696e2063616e2063726561746560581b604082015260600190565b634e487b7160e01b600052601260045260246000fd5b600082612f4557612f45612f20565b500490565b60008351612f5c81846020880161287c565b835190830190612f7081836020880161287c565b01949350505050565b8181038181111561070957610709612d21565b60208082526032908201527f4552433732313a207472616e7366657220746f206e6f6e20455243373231526560408201527131b2b4bb32b91034b6b83632b6b2b73a32b960711b606082015260800190565b6001600160a01b0385811682528416602082015260408101839052608060608201819052600090613011908301846128a0565b9695505050505050565b60006020828403121561302d57600080fd5b815161261281612849565b60008261304757613047612f20565b50069056fea264697066735822122092fea44c20739b46ad09154ecc059c5067b7eb3866f556a2e5ecf52419eb699964736f6c63430008110033",
  "linkReferences": {},
  "deployedLinkReferences": {}
}