{
  "_format": "hh-sol-artifact-1",
  "contractName": "AmarumNFT",
  "sourceName": "contracts/Amarum.sol",
  "abi": [
    {
      "inputs": [],
      "stateMutability": "nonpayable",
      "type": "constructor"
    },
    {
      "anonymous": false,
      "inputs": [
        {
          "indexed": true,
          "internalType": "uint256",
          "name": "tokenId",
          "type": "uint256"
        },
        {
          "indexed": false,
          "internalType": "address",
          "name": "author",
          "type": "address"
        },
        {
          "indexed": false,
          "internalType": "address",
          "name": "owner",
          "type": "address"
        },
        {
          "indexed": false,
          "internalType": "uint256",
          "name": "price",
          "type": "uint256"
        },
        {
          "indexed": false,
          "internalType": "uint256",
          "name": "dateCreated",
          "type": "uint256"
        },
        {
          "indexed": false,
          "internalType": "bool",
          "name": "approved",
          "type": "bool"
        }
      ],
      "name": "AmarumItemCreated",
      "type": "event"
    },
    {
      "anonymous": false,
      "inputs": [
        {
          "indexed": true,
          "internalType": "address",
          "name": "owner",
          "type": "address"
        },
        {
          "indexed": true,
          "internalType": "address",
          "name": "approved",
          "type": "address"
        },
        {
          "indexed": true,
          "internalType": "uint256",
          "name": "tokenId",
          "type": "uint256"
        }
      ],
      "name": "Approval",
      "type": "event"
    },
    {
      "anonymous": false,
      "inputs": [
        {
          "indexed": true,
          "internalType": "uint256",
          "name": "tokenId",
          "type": "uint256"
        },
        {
          "indexed": false,
          "internalType": "address",
          "name": "admin",
          "type": "address"
        },
        {
          "indexed": false,
          "internalType": "uint256",
          "name": "dateApproved",
          "type": "uint256"
        }
      ],
      "name": "ApprovalCreated",
      "type": "event"
    },
    {
      "anonymous": false,
      "inputs": [
        {
          "indexed": true,
          "internalType": "address",
          "name": "owner",
          "type": "address"
        },
        {
          "indexed": true,
          "internalType": "address",
          "name": "operator",
          "type": "address"
        },
        {
          "indexed": false,
          "internalType": "bool",
          "name": "approved",
          "type": "bool"
        }
      ],
      "name": "ApprovalForAll",
      "type": "event"
    },
    {
      "anonymous": false,
      "inputs": [
        {
          "indexed": false,
          "internalType": "uint256",
          "name": "_fromTokenId",
          "type": "uint256"
        },
        {
          "indexed": false,
          "internalType": "uint256",
          "name": "_toTokenId",
          "type": "uint256"
        }
      ],
      "name": "BatchMetadataUpdate",
      "type": "event"
    },
    {
      "anonymous": false,
      "inputs": [
        {
          "indexed": false,
          "internalType": "uint256",
          "name": "_tokenId",
          "type": "uint256"
        }
      ],
      "name": "MetadataUpdate",
      "type": "event"
    },
    {
      "anonymous": false,
      "inputs": [
        {
          "indexed": true,
          "internalType": "address",
          "name": "from",
          "type": "address"
        },
        {
          "indexed": true,
          "internalType": "address",
          "name": "to",
          "type": "address"
        },
        {
          "indexed": true,
          "internalType": "uint256",
          "name": "tokenId",
          "type": "uint256"
        }
      ],
      "name": "Transfer",
      "type": "event"
    },
    {
      "anonymous": false,
      "inputs": [
        {
          "indexed": true,
          "internalType": "uint256",
          "name": "vId",
          "type": "uint256"
        },
        {
          "indexed": false,
          "internalType": "uint256",
          "name": "tokenId",
          "type": "uint256"
        },
        {
          "indexed": false,
          "internalType": "address",
          "name": "visitor",
          "type": "address"
        }
      ],
      "name": "ViewItemCreated",
      "type": "event"
    },
    {
      "inputs": [],
      "name": "_itemApproved",
      "outputs": [
        {
          "internalType": "uint256",
          "name": "_value",
          "type": "uint256"
        }
      ],
      "stateMutability": "view",
      "type": "function"
    },
    {
      "inputs": [],
      "name": "_viewIds",
      "outputs": [
        {
          "internalType": "uint256",
          "name": "_value",
          "type": "uint256"
        }
      ],
      "stateMutability": "view",
      "type": "function"
    },
    {
      "inputs": [],
      "name": "admin",
      "outputs": [
        {
          "internalType": "address",
          "name": "",
          "type": "address"
        }
      ],
      "stateMutability": "view",
      "type": "function"
    },
    {
      "inputs": [
        {
          "internalType": "address",
          "name": "to",
          "type": "address"
        },
        {
          "internalType": "uint256",
          "name": "tokenId",
          "type": "uint256"
        }
      ],
      "name": "approve",
      "outputs": [],
      "stateMutability": "nonpayable",
      "type": "function"
    },
    {
      "inputs": [
        {
          "internalType": "address",
          "name": "owner",
          "type": "address"
        }
      ],
      "name": "balanceOf",
      "outputs": [
        {
          "internalType": "uint256",
          "name": "",
          "type": "uint256"
        }
      ],
      "stateMutability": "view",
      "type": "function"
    },
    {
      "inputs": [
        {
          "internalType": "uint256",
          "name": "tokenId",
          "type": "uint256"
        }
      ],
      "name": "createAmarumApproval",
      "outputs": [],
      "stateMutability": "nonpayable",
      "type": "function"
    },
    {
      "inputs": [
        {
          "internalType": "string",
          "name": "tokenURI",
          "type": "string"
        }
      ],
      "name": "createToken",
      "outputs": [
        {
          "internalType": "uint256",
          "name": "",
          "type": "uint256"
        }
      ],
      "stateMutability": "payable",
      "type": "function"
    },
    {
      "inputs": [
        {
          "internalType": "uint256",
          "name": "tokenId",
          "type": "uint256"
        }
      ],
      "name": "createViewItem",
      "outputs": [],
      "stateMutability": "nonpayable",
      "type": "function"
    },
    {
      "inputs": [],
      "name": "fetchAllAmarums",
      "outputs": [
        {
          "components": [
            {
              "internalType": "uint256",
              "name": "tokenId",
              "type": "uint256"
            },
            {
              "internalType": "address payable",
              "name": "author",
              "type": "address"
            },
            {
              "internalType": "address payable",
              "name": "owner",
              "type": "address"
            },
            {
              "internalType": "uint256",
              "name": "price",
              "type": "uint256"
            },
            {
              "internalType": "uint256",
              "name": "dateCreated",
              "type": "uint256"
            },
            {
              "internalType": "bool",
              "name": "approved",
              "type": "bool"
            }
          ],
          "internalType": "struct AmarumNFT.AmarumItem[]",
          "name": "",
          "type": "tuple[]"
        }
      ],
      "stateMutability": "view",
      "type": "function"
    },
    {
      "inputs": [],
      "name": "fetchAmarumsApproved",
      "outputs": [
        {
          "components": [
            {
              "internalType": "uint256",
              "name": "tokenId",
              "type": "uint256"
            },
            {
              "internalType": "address payable",
              "name": "author",
              "type": "address"
            },
            {
              "internalType": "address payable",
              "name": "owner",
              "type": "address"
            },
            {
              "internalType": "uint256",
              "name": "price",
              "type": "uint256"
            },
            {
              "internalType": "uint256",
              "name": "dateCreated",
              "type": "uint256"
            },
            {
              "internalType": "bool",
              "name": "approved",
              "type": "bool"
            }
          ],
          "internalType": "struct AmarumNFT.AmarumItem[]",
          "name": "",
          "type": "tuple[]"
        }
      ],
      "stateMutability": "view",
      "type": "function"
    },
    {
      "inputs": [
        {
          "internalType": "uint256",
          "name": "tokenId",
          "type": "uint256"
        }
      ],
      "name": "fetchItemViews",
      "outputs": [
        {
          "internalType": "uint256",
          "name": "",
          "type": "uint256"
        }
      ],
      "stateMutability": "view",
      "type": "function"
    },
    {
      "inputs": [],
      "name": "fetchMyAmarums",
      "outputs": [
        {
          "components": [
            {
              "internalType": "uint256",
              "name": "tokenId",
              "type": "uint256"
            },
            {
              "internalType": "address payable",
              "name": "author",
              "type": "address"
            },
            {
              "internalType": "address payable",
              "name": "owner",
              "type": "address"
            },
            {
              "internalType": "uint256",
              "name": "price",
              "type": "uint256"
            },
            {
              "internalType": "uint256",
              "name": "dateCreated",
              "type": "uint256"
            },
            {
              "internalType": "bool",
              "name": "approved",
              "type": "bool"
            }
          ],
          "internalType": "struct AmarumNFT.AmarumItem[]",
          "name": "",
          "type": "tuple[]"
        }
      ],
      "stateMutability": "view",
      "type": "function"
    },
    {
      "inputs": [
        {
          "internalType": "uint256",
          "name": "_tokenId",
          "type": "uint256"
        }
      ],
      "name": "fetchOneAmarum",
      "outputs": [
        {
          "components": [
            {
              "internalType": "uint256",
              "name": "tokenId",
              "type": "uint256"
            },
            {
              "internalType": "address payable",
              "name": "author",
              "type": "address"
            },
            {
              "internalType": "address payable",
              "name": "owner",
              "type": "address"
            },
            {
              "internalType": "uint256",
              "name": "price",
              "type": "uint256"
            },
            {
              "internalType": "uint256",
              "name": "dateCreated",
              "type": "uint256"
            },
            {
              "internalType": "bool",
              "name": "approved",
              "type": "bool"
            }
          ],
          "internalType": "struct AmarumNFT.AmarumItem[]",
          "name": "",
          "type": "tuple[]"
        }
      ],
      "stateMutability": "view",
      "type": "function"
    },
    {
      "inputs": [],
      "name": "fetchTotalViews",
      "outputs": [
        {
          "internalType": "uint256",
          "name": "",
          "type": "uint256"
        }
      ],
      "stateMutability": "view",
      "type": "function"
    },
    {
      "inputs": [
        {
          "internalType": "uint256",
          "name": "tokenId",
          "type": "uint256"
        }
      ],
      "name": "getApproved",
      "outputs": [
        {
          "internalType": "address",
          "name": "",
          "type": "address"
        }
      ],
      "stateMutability": "view",
      "type": "function"
    },
    {
      "inputs": [
        {
          "internalType": "uint256",
          "name": "tokenId",
          "type": "uint256"
        }
      ],
      "name": "getDatasetPrice",
      "outputs": [
        {
          "internalType": "uint256",
          "name": "",
          "type": "uint256"
        }
      ],
      "stateMutability": "view",
      "type": "function"
    },
    {
      "inputs": [
        {
          "internalType": "address",
          "name": "owner",
          "type": "address"
        },
        {
          "internalType": "address",
          "name": "operator",
          "type": "address"
        }
      ],
      "name": "isApprovedForAll",
      "outputs": [
        {
          "internalType": "bool",
          "name": "",
          "type": "bool"
        }
      ],
      "stateMutability": "view",
      "type": "function"
    },
    {
      "inputs": [],
      "name": "name",
      "outputs": [
        {
          "internalType": "string",
          "name": "",
          "type": "string"
        }
      ],
      "stateMutability": "view",
      "type": "function"
    },
    {
      "inputs": [
        {
          "internalType": "uint256",
          "name": "tokenId",
          "type": "uint256"
        }
      ],
      "name": "ownerOf",
      "outputs": [
        {
          "internalType": "address",
          "name": "",
          "type": "address"
        }
      ],
      "stateMutability": "view",
      "type": "function"
    },
    {
      "inputs": [
        {
          "internalType": "address",
          "name": "from",
          "type": "address"
        },
        {
          "internalType": "address",
          "name": "to",
          "type": "address"
        },
        {
          "internalType": "uint256",
          "name": "tokenId",
          "type": "uint256"
        }
      ],
      "name": "safeTransferFrom",
      "outputs": [],
      "stateMutability": "nonpayable",
      "type": "function"
    },
    {
      "inputs": [
        {
          "internalType": "address",
          "name": "from",
          "type": "address"
        },
        {
          "internalType": "address",
          "name": "to",
          "type": "address"
        },
        {
          "internalType": "uint256",
          "name": "tokenId",
          "type": "uint256"
        },
        {
          "internalType": "bytes",
          "name": "data",
          "type": "bytes"
        }
      ],
      "name": "safeTransferFrom",
      "outputs": [],
      "stateMutability": "nonpayable",
      "type": "function"
    },
    {
      "inputs": [
        {
          "internalType": "address",
          "name": "operator",
          "type": "address"
        },
        {
          "internalType": "bool",
          "name": "approved",
          "type": "bool"
        }
      ],
      "name": "setApprovalForAll",
      "outputs": [],
      "stateMutability": "nonpayable",
      "type": "function"
    },
    {
      "inputs": [
        {
          "internalType": "bytes4",
          "name": "interfaceId",
          "type": "bytes4"
        }
      ],
      "name": "supportsInterface",
      "outputs": [
        {
          "internalType": "bool",
          "name": "",
          "type": "bool"
        }
      ],
      "stateMutability": "view",
      "type": "function"
    },
    {
      "inputs": [],
      "name": "symbol",
      "outputs": [
        {
          "internalType": "string",
          "name": "",
          "type": "string"
        }
      ],
      "stateMutability": "view",
      "type": "function"
    },
    {
      "inputs": [
        {
          "internalType": "uint256",
          "name": "tokenId",
          "type": "uint256"
        }
      ],
      "name": "tokenURI",
      "outputs": [
        {
          "internalType": "string",
          "name": "",
          "type": "string"
        }
      ],
      "stateMutability": "view",
      "type": "function"
    },
    {
      "inputs": [],
      "name": "totalVotes",
      "outputs": [
        {
          "internalType": "uint256",
          "name": "",
          "type": "uint256"
        }
      ],
      "stateMutability": "view",
      "type": "function"
    },
    {
      "inputs": [
        {
          "internalType": "address",
          "name": "from",
          "type": "address"
        },
        {
          "internalType": "address",
          "name": "to",
          "type": "address"
        },
        {
          "internalType": "uint256",
          "name": "tokenId",
          "type": "uint256"
        }
      ],
      "name": "transferFrom",
      "outputs": [],
      "stateMutability": "nonpayable",
      "type": "function"
    },
    {
      "inputs": [
        {
          "internalType": "uint256",
          "name": "_tokenId",
          "type": "uint256"
        },
        {
          "internalType": "uint256",
          "name": "_price",
          "type": "uint256"
        }
      ],
      "name": "updateDatasetPrice",
      "outputs": [],
      "stateMutability": "payable",
      "type": "function"
    },
    {
      "inputs": [
        {
          "internalType": "uint256",
          "name": "value",
          "type": "uint256"
        }
      ],
      "name": "withdraw",
      "outputs": [],
      "stateMutability": "nonpayable",
      "type": "function"
    }
  ],
  "bytecode": "0x60806040523480156200001157600080fd5b506040518060400160405280600d81526020016c159a59195bcb51185d185cd95d609a1b8152506040518060400160405280600381526020016256445360e81b8152508160009081620000659190620001b8565b506001620000748282620001b8565b5050600b8054336001600160a01b03199182168117909255600c805490911690911790555062000288565b634e487b7160e01b600052604160045260246000fd5b634e487b7160e01b600052602260045260246000fd5b600281046001821680620000e057607f821691505b602082108103620000f557620000f5620000b5565b50919050565b60006200010c620001098381565b90565b92915050565b6200011d83620000fb565b81546008840282811b60001990911b908116901990911617825550505050565b60006200014c81848462000112565b505050565b818110156200017057620001676000826200013d565b60010162000151565b5050565b601f8211156200014c576000818152602090206020601f850104810160208510156200019d5750805b620001b16020601f86010483018262000151565b5050505050565b81516001600160401b03811115620001d457620001d46200009f565b620001e08254620000cb565b620001ed82828562000174565b6020601f8311600181146200022457600084156200020b5750858201515b600019600886021c198116600286021786555062000280565b600085815260208120601f198616915b8281101562000256578885015182556020948501946001909201910162000234565b86831015620002735784890151600019601f89166008021c191682555b6001600288020188555050505b505050505050565b612af180620002986000396000f3fe6080604052600436106101c25760003560e01c806370a08231116100f7578063c87b56dd11610095578063f55be08611610064578063f55be08614610513578063f851a44014610528578063fef6b32714610548578063ffcb40091461055f57600080fd5b8063c87b56dd14610475578063d69b36f814610495578063d6eb5486146104b5578063e985e9c5146104ca57600080fd5b806395d89b41116100d157806395d89b41146103f0578063a22cb46514610405578063b88d4fde14610425578063c5d92be61461044557600080fd5b806370a08231146103905780638727f720146103b05780638b0f74a6146103d057600080fd5b80632e1a7d4d116101645780633c8f28231161013e5780633c8f28231461031d57806342842e0e1461033d57806345576f941461035d5780636352211e1461037057600080fd5b80632e1a7d4d146102d35780632ed06c3b146102f357806338c1ee7f1461030657600080fd5b8063095ea7b3116101a0578063095ea7b31461024c5780630d15fd771461026e5780631407a2371461029157806323b872dd146102b357600080fd5b806301ffc9a7146101c757806306fdde03146101fd578063081812fc1461021f575b600080fd5b3480156101d357600080fd5b506101e76101e2366004611cb5565b610574565b6040516101f49190611ce0565b60405180910390f35b34801561020957600080fd5b506102126105b8565b6040516101f49190611d44565b34801561022b57600080fd5b5061023f61023a366004611d66565b61064a565b6040516101f49190611da1565b34801561025857600080fd5b5061026c610267366004611dc3565b610671565b005b34801561027a57600080fd5b50610284600d5481565b6040516101f49190611e06565b34801561029d57600080fd5b506102a661071d565b6040516101f49190611ee1565b3480156102bf57600080fd5b5061026c6102ce366004611ef2565b6108b8565b3480156102df57600080fd5b5061026c6102ee366004611d66565b6108e9565b61026c610301366004611f42565b6109b8565b34801561031257600080fd5b50600a546102849081565b34801561032957600080fd5b5061026c610338366004611d66565b6109f7565b34801561034957600080fd5b5061026c610358366004611ef2565b610aab565b61028461036b366004612057565b610ac6565b34801561037c57600080fd5b5061023f61038b366004611d66565b610b00565b34801561039c57600080fd5b506102846103ab366004612092565b610b35565b3480156103bc57600080fd5b506102846103cb366004611d66565b610b79565b3480156103dc57600080fd5b506102a66103eb366004611d66565b610be2565b3480156103fc57600080fd5b50610212610dbb565b34801561041157600080fd5b5061026c6104203660046120c6565b610dca565b34801561043157600080fd5b5061026c6104403660046120f9565b610dd5565b34801561045157600080fd5b50610284610460366004611d66565b6000908152600e602052604090206003015490565b34801561048157600080fd5b50610212610490366004611d66565b610e0d565b3480156104a157600080fd5b5061026c6104b0366004611d66565b610f1d565b3480156104c157600080fd5b506102a6610fae565b3480156104d657600080fd5b506101e76104e5366004612178565b6001600160a01b03918216600090815260056020908152604080832093909416825291909152205460ff1690565b34801561051f57600080fd5b50610284611193565b34801561053457600080fd5b50600c5461023f906001600160a01b031681565b34801561055457600080fd5b506009546102849081565b34801561056b57600080fd5b506102a661119f565b60006001600160e01b031982167f490649060000000000000000000000000000000000000000000000000000000014806105b257506105b28261137e565b92915050565b6060600080546105c7906121c1565b80601f01602080910402602001604051908101604052809291908181526020018280546105f3906121c1565b80156106405780601f1061061557610100808354040283529160200191610640565b820191906000526020600020905b81548152906001019060200180831161062357829003601f168201915b5050505050905090565b600061065582611419565b506000908152600460205260409020546001600160a01b031690565b600061067c82610b00565b9050806001600160a01b0316836001600160a01b0316036106b85760405162461bcd60e51b81526004016106af9061224a565b60405180910390fd5b336001600160a01b03821614806106f257506001600160a01b038116600090815260056020908152604080832033845290915290205460ff165b61070e5760405162461bcd60e51b81526004016106af906122b4565b6107188383611450565b505050565b6060600061072a60075490565b9050600061073760075490565b90506000808267ffffffffffffffff81111561075557610755611f64565b6040519080825280602002602001820160405280156107b557816020015b6040805160c08101825260008082526020808301829052928201819052606082018190526080820181905260a082015282526000199092019101816107735790505b50905060005b848110156108af5730600e60006107d38460016122da565b81526020810191909152604001600020600201546001600160a01b03160361089d5760006108028260016122da565b6000818152600e6020908152604091829020825160c0810184528154815260018201546001600160a01b03908116938201939093526002820154909216928201929092526003820154606082015260048201546080820152600582015460ff16151560a082015285519293509091859087908110610882576108826122ed565b60209081029190910101526108986001866122da565b945050505b806108a781612303565b9150506107bb565b50949350505050565b6108c233826114be565b6108de5760405162461bcd60e51b81526004016106af90612377565b61071883838361153c565b600b546001600160a01b031633146109135760405162461bcd60e51b81526004016106af906123be565b478111156109335760405162461bcd60e51b81526004016106af90612402565b600b546040516000916001600160a01b031690839061095190612415565b60006040518083038185875af1925050503d806000811461098e576040519150601f19603f3d011682016040523d82523d6000602084013e610993565b606091505b50509050806109b45760405162461bcd60e51b81526004016106af90612451565b5050565b600b546001600160a01b031633146109e25760405162461bcd60e51b81526004016106af906124bb565b6000918252600e602052604090912060030155565b610a05600980546001019055565b6000610a1060095490565b604080516060810182528281526020808201868152338385018181526000878152600f9094529285902093518455905160018401559051600290920180546001600160a01b0319166001600160a01b0390931692909217909155905191925082917f76eeab97092ad834df0b561eae45cd54f5583ebef4240be2483d115d9fb4ed6191610a9f918691906124cb565b60405180910390a25050565b61071883838360405180602001604052806000815250610dd5565b6000610ad6600780546001019055565b6000610ae160075490565b9050610aed3382611664565b610af7818461175f565b6105b2816117e7565b6000818152600260205260408120546001600160a01b0316806105b25760405162461bcd60e51b81526004016106af9061251a565b60006001600160a01b038216610b5d5760405162461bcd60e51b81526004016106af90612584565b506001600160a01b031660009081526003602052604090205490565b600080610b8560095490565b90506000805b82811015610bda5784600f6000610ba38460016122da565b81526020019081526020016000206001015403610bc857610bc56001836122da565b91505b80610bd281612303565b915050610b8b565b509392505050565b60606000610bef60075490565b905060008060005b83811015610c465785600e6000610c0f8460016122da565b81526020019081526020016000206000015403610c3457610c316001846122da565b92505b80610c3e81612303565b915050610bf7565b5060008267ffffffffffffffff811115610c6257610c62611f64565b604051908082528060200260200182016040528015610cc257816020015b6040805160c08101825260008082526020808301829052928201819052606082018190526080820181905260a08201528252600019909201910181610c805790505b50905060005b84811015610db15786600e6000610ce08460016122da565b81526020019081526020016000206000015403610d9f576000610d048260016122da565b6000818152600e6020908152604091829020825160c0810184528154815260018201546001600160a01b03908116938201939093526002820154909216928201929092526003820154606082015260048201546080820152600582015460ff16151560a082015285519293509091859087908110610d8457610d846122ed565b6020908102919091010152610d9a6001866122da565b945050505b80610da981612303565b915050610cc8565b5095945050505050565b6060600180546105c7906121c1565b6109b43383836118c7565b610ddf33836114be565b610dfb5760405162461bcd60e51b81526004016106af90612377565b610e0784848484611969565b50505050565b6060610e1882611419565b60008281526006602052604081208054610e31906121c1565b80601f0160208091040260200160405190810160405280929190818152602001828054610e5d906121c1565b8015610eaa5780601f10610e7f57610100808354040283529160200191610eaa565b820191906000526020600020905b815481529060010190602001808311610e8d57829003601f168201915b505050505090506000610ec860408051602081019091526000815290565b90508051600003610eda575092915050565b815115610f0c578082604051602001610ef49291906125b6565b60405160208183030381529060405292505050919050565b610f158461199c565b949350505050565b600c546001600160a01b03163314610f475760405162461bcd60e51b81526004016106af90612602565b6000818152600e60205260409020600501805460ff19166001179055610f71600a80546001019055565b807f7b3e57f92a64bfa12c15cfbeddc70d341fcd97a16b9e40d978ac7250d653de183342604051610fa3929190612612565b60405180910390a250565b60606000610fbb60075490565b905060008060005b8381101561101d5733600e6000610fdb8460016122da565b81526020810191909152604001600020600101546001600160a01b03160361100b576110086001846122da565b92505b8061101581612303565b915050610fc3565b5060008267ffffffffffffffff81111561103957611039611f64565b60405190808252806020026020018201604052801561109957816020015b6040805160c08101825260008082526020808301829052928201819052606082018190526080820181905260a082015282526000199092019101816110575790505b50905060005b848110156108af5733600e60006110b78460016122da565b81526020810191909152604001600020600101546001600160a01b0316036111815760006110e68260016122da565b6000818152600e6020908152604091829020825160c0810184528154815260018201546001600160a01b03908116938201939093526002820154909216928201929092526003820154606082015260048201546080820152600582015460ff16151560a082015285519293509091859087908110611166576111666122ed565b602090810291909101015261117c6001866122da565b945050505b8061118b81612303565b91505061109f565b6000806105b260095490565b606060006111ac60075490565b905060008060005b8381101561120b57600e60006111cb8360016122da565b815260208101919091526040016000206005015460ff1615156001036111f9576111f66001846122da565b92505b8061120381612303565b9150506111b4565b5060008267ffffffffffffffff81111561122757611227611f64565b60405190808252806020026020018201604052801561128757816020015b6040805160c08101825260008082526020808301829052928201819052606082018190526080820181905260a082015282526000199092019101816112455790505b50905060005b848110156108af57600e60006112a48360016122da565b815260208101919091526040016000206005015460ff16151560010361136c5760006112d18260016122da565b6000818152600e6020908152604091829020825160c0810184528154815260018201546001600160a01b03908116938201939093526002820154909216928201929092526003820154606082015260048201546080820152600582015460ff16151560a082015285519293509091859087908110611351576113516122ed565b60209081029190910101526113676001866122da565b945050505b8061137681612303565b91505061128d565b60006001600160e01b031982167f80ac58cd0000000000000000000000000000000000000000000000000000000014806113e157506001600160e01b031982167f5b5e139f00000000000000000000000000000000000000000000000000000000145b806105b257507f01ffc9a7000000000000000000000000000000000000000000000000000000006001600160e01b03198316146105b2565b6000818152600260205260409020546001600160a01b031661144d5760405162461bcd60e51b81526004016106af9061251a565b50565b600081815260046020526040902080546001600160a01b0319166001600160a01b038416908117909155819061148582610b00565b6001600160a01b03167f8c5be1e5ebec7d5bd14f71427d1e84f3dd0314c0f7b2291e5b200ac8c7c3b92560405160405180910390a45050565b6000806114ca83610b00565b9050806001600160a01b0316846001600160a01b0316148061151157506001600160a01b0380821660009081526005602090815260408083209388168352929052205460ff165b80610f155750836001600160a01b031661152a8461064a565b6001600160a01b031614949350505050565b826001600160a01b031661154f82610b00565b6001600160a01b0316146115755760405162461bcd60e51b81526004016106af90612687565b6001600160a01b03821661159b5760405162461bcd60e51b81526004016106af906126f1565b826001600160a01b03166115ae82610b00565b6001600160a01b0316146115d45760405162461bcd60e51b81526004016106af90612687565b600081815260046020908152604080832080546001600160a01b03199081169091556001600160a01b0387811680865260038552838620805460001901905590871680865283862080546001019055868652600290945282852080549092168417909155905184937fddf252ad1be2c89b69c2b068fc378daa952ba7f163c4a11628f55a4df523b3ef91a4505050565b6001600160a01b03821661168a5760405162461bcd60e51b81526004016106af90612733565b6000818152600260205260409020546001600160a01b0316156116bf5760405162461bcd60e51b81526004016106af90612777565b6000818152600260205260409020546001600160a01b0316156116f45760405162461bcd60e51b81526004016106af90612777565b6001600160a01b038216600081815260036020908152604080832080546001019055848352600290915280822080546001600160a01b0319168417905551839291907fddf252ad1be2c89b69c2b068fc378daa952ba7f163c4a11628f55a4df523b3ef908290a45050565b6000828152600260205260409020546001600160a01b03166117935760405162461bcd60e51b81526004016106af906127e1565b60008281526006602052604090206117ab828261288e565b507ff8e1a15aba9398e019f0b49df1a4fde98ee17ae345cb5f6b5e2c27f5033e8ce7826040516117db9190611e06565b60405180910390a15050565b6040805160c08101825282815233602080830182815230848601818152600060608701818152426080890190815260a089018381528b8452600e909752989091209651875592516001870180546001600160a01b03199081166001600160a01b0393841617909155915160028801805490931691161790559051600385015593516004840155516005909201805460ff19169215159290921790915561188d918361153c565b807fc590106236c6001252e9837a8ef9b67ba4a70dba67f1784a6f00f564cdc17bfc33306000426000604051610fa395949392919061295b565b816001600160a01b0316836001600160a01b0316036118f85760405162461bcd60e51b81526004016106af906129db565b6001600160a01b0383811660008181526005602090815260408083209487168084529490915290819020805460ff1916851515179055517f17307eab39ab6107e8899845ad3d59bd9653f200f220920489ca2b5937696c319061195c908590611ce0565b60405180910390a3505050565b61197484848461153c565b61198084848484611a10565b610e075760405162461bcd60e51b81526004016106af90612a45565b60606119a782611419565b60006119be60408051602081019091526000815290565b905060008151116119de5760405180602001604052806000815250611a09565b806119e884611b11565b6040516020016119f99291906125b6565b6040516020818303038152906040525b9392505050565b60006001600160a01b0384163b15611b0657604051630a85bd0160e11b81526001600160a01b0385169063150b7a0290611a54903390899088908890600401612a55565b6020604051808303816000875af1925050508015611a8f575060408051601f3d908101601f19168201909252611a8c91810190612a9a565b60015b611aec573d808015611abd576040519150601f19603f3d011682016040523d82523d6000602084013e611ac2565b606091505b508051600003611ae45760405162461bcd60e51b81526004016106af90612a45565b805181602001fd5b6001600160e01b031916630a85bd0160e11b149050610f15565b506001949350505050565b60606000611b1e83611bb1565b600101905060008167ffffffffffffffff811115611b3e57611b3e611f64565b6040519080825280601f01601f191660200182016040528015611b68576020820181803683370190505b5090508181016020015b600019017f3031323334353637383961626364656600000000000000000000000000000000600a86061a8153600a8504945084611b7257509392505050565b6000807a184f03e93ff9f4daa797ed6e38ed64bf6a1f0100000000000000008310611bfa577a184f03e93ff9f4daa797ed6e38ed64bf6a1f010000000000000000830492506040015b6d04ee2d6d415b85acef81000000008310611c26576d04ee2d6d415b85acef8100000000830492506020015b662386f26fc100008310611c4457662386f26fc10000830492506010015b6305f5e1008310611c5c576305f5e100830492506008015b6127108310611c7057612710830492506004015b60648310611c82576064830492506002015b600a83106105b25760010192915050565b6001600160e01b031981165b811461144d57600080fd5b80356105b281611c93565b600060208284031215611cca57611cca600080fd5b6000610f158484611caa565b8015155b82525050565b602081016105b28284611cd6565b60005b83811015611d09578181015183820152602001611cf1565b50506000910152565b6000611d1c825190565b808452602084019350611d33818560208601611cee565b601f01601f19169290920192915050565b60208082528101611a098184611d12565b80611c9f565b80356105b281611d55565b600060208284031215611d7b57611d7b600080fd5b6000610f158484611d5b565b60006001600160a01b0382166105b2565b611cda81611d87565b602081016105b28284611d98565b611c9f81611d87565b80356105b281611daf565b60008060408385031215611dd957611dd9600080fd5b6000611de58585611db8565b9250506020611df685828601611d5b565b9150509250929050565b80611cda565b602081016105b28284611e00565b805160c0830190611e258482611e00565b506020820151611e386020850182611d98565b506040820151611e4b6040850182611d98565b506060820151611e5e6060850182611e00565b506080820151611e716080850182611e00565b5060a0820151610e0760a0850182611cd6565b6000611e908383611e14565b505060c00190565b6000611ea2825190565b80845260209384019383018060005b83811015611ed6578151611ec58882611e84565b975060208301925050600101611eb1565b509495945050505050565b60208082528101611a098184611e98565b600080600060608486031215611f0a57611f0a600080fd5b6000611f168686611db8565b9350506020611f2786828701611db8565b9250506040611f3886828701611d5b565b9150509250925092565b60008060408385031215611f5857611f58600080fd5b6000611de58585611d5b565b634e487b7160e01b600052604160045260246000fd5b601f19601f830116810181811067ffffffffffffffff82111715611fa057611fa0611f64565b6040525050565b6000611fb260405190565b9050611fbe8282611f7a565b919050565b600067ffffffffffffffff821115611fdd57611fdd611f64565b601f19601f83011660200192915050565b82818337506000910152565b600061200d61200884611fc3565b611fa7565b90508281526020810184848401111561202857612028600080fd5b610bda848285611fee565b600082601f83011261204757612047600080fd5b8135610f15848260208601611ffa565b60006020828403121561206c5761206c600080fd5b813567ffffffffffffffff81111561208657612086600080fd5b610f1584828501612033565b6000602082840312156120a7576120a7600080fd5b6000610f158484611db8565b801515611c9f565b80356105b2816120b3565b600080604083850312156120dc576120dc600080fd5b60006120e88585611db8565b9250506020611df6858286016120bb565b6000806000806080858703121561211257612112600080fd5b600061211e8787611db8565b945050602061212f87828801611db8565b935050604061214087828801611d5b565b925050606085013567ffffffffffffffff81111561216057612160600080fd5b61216c87828801612033565b91505092959194509250565b6000806040838503121561218e5761218e600080fd5b600061219a8585611db8565b9250506020611df685828601611db8565b634e487b7160e01b600052602260045260246000fd5b6002810460018216806121d557607f821691505b6020821081036121e7576121e76121ab565b50919050565b602181526000602082017f4552433732313a20617070726f76616c20746f2063757272656e74206f776e6581527f7200000000000000000000000000000000000000000000000000000000000000602082015291505b5060400190565b602080825281016105b2816121ed565b603d81526000602082017f4552433732313a20617070726f76652063616c6c6572206973206e6f7420746f81527f6b656e206f776e6572206f7220617070726f76656420666f7220616c6c00000060208201529150612243565b602080825281016105b28161225a565b634e487b7160e01b600052601160045260246000fd5b808201808211156105b2576105b26122c4565b634e487b7160e01b600052603260045260246000fd5b60006000198203612316576123166122c4565b5060010190565b602d81526000602082017f4552433732313a2063616c6c6572206973206e6f7420746f6b656e206f776e6581527f72206f7220617070726f7665640000000000000000000000000000000000000060208201529150612243565b602080825281016105b28161231d565b601881526000602082017f41646472657373206973206e6f7420746865206f776e65720000000000000000815291505b5060200190565b602080825281016105b281612387565b601a81526000602082017f56616c756520686967686572207468616e2062616c616e63652e000000000000815291506123b7565b602080825281016105b2816123ce565b90565b6000816105b2565b601381526000602082017f54686572652077617320616e206572726f722100000000000000000000000000815291506123b7565b602080825281016105b28161241d565b603681526000602082017f4f6e6c79206d61726b6574706c616365206f776e65722f61646d696e2063616e81527f2075706461746520646174617365742070726963652e0000000000000000000060208201529150612243565b602080825281016105b281612461565b604081016124d98285611e00565b611a096020830184611d98565b601881526000602082017f4552433732313a20696e76616c696420746f6b656e2049440000000000000000815291506123b7565b602080825281016105b2816124e6565b602981526000602082017f4552433732313a2061646472657373207a65726f206973206e6f74206120766181527f6c6964206f776e6572000000000000000000000000000000000000000000000060208201529150612243565b602080825281016105b28161252a565b600061259e825190565b6125ac818560208601611cee565b9290920192915050565b60006125c28285612594565b9150610f158284612594565b601581526000602082017f4f6e6c792061646d696e2063616e206372656174650000000000000000000000815291506123b7565b602080825281016105b2816125ce565b604081016126208285611d98565b611a096020830184611e00565b602581526000602082017f4552433732313a207472616e736665722066726f6d20696e636f72726563742081527f6f776e657200000000000000000000000000000000000000000000000000000060208201529150612243565b602080825281016105b28161262d565b602481526000602082017f4552433732313a207472616e7366657220746f20746865207a65726f2061646481527f726573730000000000000000000000000000000000000000000000000000000060208201529150612243565b602080825281016105b281612697565b60208082527f4552433732313a206d696e7420746f20746865207a65726f2061646472657373910190815260006123b7565b602080825281016105b281612701565b601c81526000602082017f4552433732313a20746f6b656e20616c7265616479206d696e74656400000000815291506123b7565b602080825281016105b281612743565b602e81526000602082017f45524337323155524953746f726167653a2055524920736574206f66206e6f6e81527f6578697374656e7420746f6b656e00000000000000000000000000000000000060208201529150612243565b602080825281016105b281612787565b60006105b26124128381565b612806836127f1565b81546008840282811b60001990911b908116901990911617825550505050565b60006107188184846127fd565b818110156109b457612846600082612826565b600101612833565b601f821115610718576000818152602090206020601f850104810160208510156128755750805b6128876020601f860104830182612833565b5050505050565b815167ffffffffffffffff8111156128a8576128a8611f64565b6128b282546121c1565b6128bd82828561284e565b6020601f8311600181146128f157600084156128d95750858201515b600019600886021c198116600286021786555061294a565b600085815260208120601f198616915b828110156129215788850151825560209485019460019092019101612901565b8683101561293d5784890151600019601f89166008021c191682555b6001600288020188555050505b505050505050565b611cda816127f1565b60a081016129698288611d98565b6129766020830187611d98565b6129836040830186612952565b6129906060830185611e00565b61299d6080830184611cd6565b9695505050505050565b601981526000602082017f4552433732313a20617070726f766520746f2063616c6c657200000000000000815291506123b7565b602080825281016105b2816129a7565b603281526000602082017f4552433732313a207472616e7366657220746f206e6f6e20455243373231526581527f63656976657220696d706c656d656e746572000000000000000000000000000060208201529150612243565b602080825281016105b2816129eb565b60808101612a638287611d98565b612a706020830186611d98565b612a7d6040830185611e00565b818103606083015261299d8184611d12565b80516105b281611c93565b600060208284031215612aaf57612aaf600080fd5b6000610f158484612a8f56fea264697066735822122095cd78d705f60000abd1619762299997f2989b900a2251cacdb005204c84343064736f6c63430008110033",
  "linkReferences": {},
  "deployedLinkReferences": {}
}