{
  "_format": "hh-sol-artifact-1",
  "contractName": "AmarumNFT",
  "sourceName": "contracts/Amarum.sol",
  "abi": [
    {
      "inputs": [],
      "stateMutability": "nonpayable",
      "type": "constructor"
    },
    {
      "anonymous": false,
      "inputs": [
        {
          "indexed": true,
          "internalType": "uint256",
          "name": "tokenId",
          "type": "uint256"
        },
        {
          "indexed": false,
          "internalType": "address",
          "name": "author",
          "type": "address"
        },
        {
          "indexed": false,
          "internalType": "address",
          "name": "owner",
          "type": "address"
        },
        {
          "indexed": false,
          "internalType": "uint256",
          "name": "dateCreated",
          "type": "uint256"
        },
        {
          "indexed": false,
          "internalType": "bool",
          "name": "approved",
          "type": "bool"
        }
      ],
      "name": "AmarumItemCreated",
      "type": "event"
    },
    {
      "anonymous": false,
      "inputs": [
        {
          "indexed": true,
          "internalType": "address",
          "name": "owner",
          "type": "address"
        },
        {
          "indexed": true,
          "internalType": "address",
          "name": "approved",
          "type": "address"
        },
        {
          "indexed": true,
          "internalType": "uint256",
          "name": "tokenId",
          "type": "uint256"
        }
      ],
      "name": "Approval",
      "type": "event"
    },
    {
      "anonymous": false,
      "inputs": [
        {
          "indexed": true,
          "internalType": "uint256",
          "name": "tokenId",
          "type": "uint256"
        },
        {
          "indexed": false,
          "internalType": "address",
          "name": "admin",
          "type": "address"
        },
        {
          "indexed": false,
          "internalType": "uint256",
          "name": "dateApproved",
          "type": "uint256"
        }
      ],
      "name": "ApprovalCreated",
      "type": "event"
    },
    {
      "anonymous": false,
      "inputs": [
        {
          "indexed": true,
          "internalType": "address",
          "name": "owner",
          "type": "address"
        },
        {
          "indexed": true,
          "internalType": "address",
          "name": "operator",
          "type": "address"
        },
        {
          "indexed": false,
          "internalType": "bool",
          "name": "approved",
          "type": "bool"
        }
      ],
      "name": "ApprovalForAll",
      "type": "event"
    },
    {
      "anonymous": false,
      "inputs": [
        {
          "indexed": false,
          "internalType": "uint256",
          "name": "_fromTokenId",
          "type": "uint256"
        },
        {
          "indexed": false,
          "internalType": "uint256",
          "name": "_toTokenId",
          "type": "uint256"
        }
      ],
      "name": "BatchMetadataUpdate",
      "type": "event"
    },
    {
      "anonymous": false,
      "inputs": [
        {
          "indexed": false,
          "internalType": "uint256",
          "name": "_tokenId",
          "type": "uint256"
        }
      ],
      "name": "MetadataUpdate",
      "type": "event"
    },
    {
      "anonymous": false,
      "inputs": [
        {
          "indexed": true,
          "internalType": "address",
          "name": "from",
          "type": "address"
        },
        {
          "indexed": true,
          "internalType": "address",
          "name": "to",
          "type": "address"
        },
        {
          "indexed": true,
          "internalType": "uint256",
          "name": "tokenId",
          "type": "uint256"
        }
      ],
      "name": "Transfer",
      "type": "event"
    },
    {
      "anonymous": false,
      "inputs": [
        {
          "indexed": true,
          "internalType": "uint256",
          "name": "vId",
          "type": "uint256"
        },
        {
          "indexed": false,
          "internalType": "uint256",
          "name": "tokenId",
          "type": "uint256"
        },
        {
          "indexed": false,
          "internalType": "address",
          "name": "visitor",
          "type": "address"
        }
      ],
      "name": "ViewItemCreated",
      "type": "event"
    },
    {
      "inputs": [
        {
          "internalType": "string",
          "name": "",
          "type": "string"
        }
      ],
      "name": "AmarumRepos",
      "outputs": [
        {
          "internalType": "string",
          "name": "url",
          "type": "string"
        },
        {
          "internalType": "string",
          "name": "dealId",
          "type": "string"
        },
        {
          "internalType": "string",
          "name": "pieceCid",
          "type": "string"
        },
        {
          "internalType": "address",
          "name": "spAddress",
          "type": "address"
        },
        {
          "internalType": "uint256",
          "name": "numberOfVotes",
          "type": "uint256"
        },
        {
          "internalType": "bool",
          "name": "stored",
          "type": "bool"
        },
        {
          "internalType": "bool",
          "name": "accepted",
          "type": "bool"
        },
        {
          "internalType": "uint256",
          "name": "yesVotes",
          "type": "uint256"
        },
        {
          "internalType": "uint256",
          "name": "noVotes",
          "type": "uint256"
        },
        {
          "internalType": "bool",
          "name": "isValue",
          "type": "bool"
        }
      ],
      "stateMutability": "view",
      "type": "function"
    },
    {
      "inputs": [],
      "name": "_itemApproved",
      "outputs": [
        {
          "internalType": "uint256",
          "name": "_value",
          "type": "uint256"
        }
      ],
      "stateMutability": "view",
      "type": "function"
    },
    {
      "inputs": [],
      "name": "_viewIds",
      "outputs": [
        {
          "internalType": "uint256",
          "name": "_value",
          "type": "uint256"
        }
      ],
      "stateMutability": "view",
      "type": "function"
    },
    {
      "inputs": [],
      "name": "admin",
      "outputs": [
        {
          "internalType": "address",
          "name": "",
          "type": "address"
        }
      ],
      "stateMutability": "view",
      "type": "function"
    },
    {
      "inputs": [],
      "name": "adminAdvanceEpoch",
      "outputs": [],
      "stateMutability": "nonpayable",
      "type": "function"
    },
    {
      "inputs": [],
      "name": "adminAdvanceStage",
      "outputs": [],
      "stateMutability": "nonpayable",
      "type": "function"
    },
    {
      "inputs": [
        {
          "internalType": "address",
          "name": "to",
          "type": "address"
        },
        {
          "internalType": "uint256",
          "name": "tokenId",
          "type": "uint256"
        }
      ],
      "name": "approve",
      "outputs": [],
      "stateMutability": "nonpayable",
      "type": "function"
    },
    {
      "inputs": [
        {
          "internalType": "address",
          "name": "owner",
          "type": "address"
        }
      ],
      "name": "balanceOf",
      "outputs": [
        {
          "internalType": "uint256",
          "name": "",
          "type": "uint256"
        }
      ],
      "stateMutability": "view",
      "type": "function"
    },
    {
      "inputs": [
        {
          "internalType": "uint256",
          "name": "tokenId",
          "type": "uint256"
        }
      ],
      "name": "createAmarumApproval",
      "outputs": [],
      "stateMutability": "nonpayable",
      "type": "function"
    },
    {
      "inputs": [
        {
          "internalType": "string",
          "name": "tokenURI",
          "type": "string"
        }
      ],
      "name": "createToken",
      "outputs": [
        {
          "internalType": "uint256",
          "name": "",
          "type": "uint256"
        }
      ],
      "stateMutability": "payable",
      "type": "function"
    },
    {
      "inputs": [
        {
          "internalType": "uint256",
          "name": "tokenId",
          "type": "uint256"
        }
      ],
      "name": "createViewItem",
      "outputs": [],
      "stateMutability": "nonpayable",
      "type": "function"
    },
    {
      "inputs": [],
      "name": "currentEpoch",
      "outputs": [
        {
          "internalType": "uint256",
          "name": "",
          "type": "uint256"
        }
      ],
      "stateMutability": "view",
      "type": "function"
    },
    {
      "inputs": [
        {
          "internalType": "address",
          "name": "",
          "type": "address"
        }
      ],
      "name": "daoMembers",
      "outputs": [
        {
          "internalType": "uint256",
          "name": "memberId",
          "type": "uint256"
        },
        {
          "internalType": "address payable",
          "name": "addr",
          "type": "address"
        },
        {
          "internalType": "uint256",
          "name": "availableVotes",
          "type": "uint256"
        },
        {
          "internalType": "uint256",
          "name": "votingPower",
          "type": "uint256"
        },
        {
          "internalType": "bool",
          "name": "isValue",
          "type": "bool"
        }
      ],
      "stateMutability": "view",
      "type": "function"
    },
    {
      "inputs": [],
      "name": "epochStage",
      "outputs": [
        {
          "internalType": "uint256",
          "name": "",
          "type": "uint256"
        }
      ],
      "stateMutability": "view",
      "type": "function"
    },
    {
      "inputs": [],
      "name": "fetchAllAmarums",
      "outputs": [
        {
          "components": [
            {
              "internalType": "uint256",
              "name": "tokenId",
              "type": "uint256"
            },
            {
              "internalType": "address payable",
              "name": "author",
              "type": "address"
            },
            {
              "internalType": "address payable",
              "name": "owner",
              "type": "address"
            },
            {
              "internalType": "uint256",
              "name": "dateCreated",
              "type": "uint256"
            },
            {
              "internalType": "bool",
              "name": "approved",
              "type": "bool"
            }
          ],
          "internalType": "struct AmarumNFT.AmarumItem[]",
          "name": "",
          "type": "tuple[]"
        }
      ],
      "stateMutability": "view",
      "type": "function"
    },
    {
      "inputs": [],
      "name": "fetchAmarumsApproved",
      "outputs": [
        {
          "components": [
            {
              "internalType": "uint256",
              "name": "tokenId",
              "type": "uint256"
            },
            {
              "internalType": "address payable",
              "name": "author",
              "type": "address"
            },
            {
              "internalType": "address payable",
              "name": "owner",
              "type": "address"
            },
            {
              "internalType": "uint256",
              "name": "dateCreated",
              "type": "uint256"
            },
            {
              "internalType": "bool",
              "name": "approved",
              "type": "bool"
            }
          ],
          "internalType": "struct AmarumNFT.AmarumItem[]",
          "name": "",
          "type": "tuple[]"
        }
      ],
      "stateMutability": "view",
      "type": "function"
    },
    {
      "inputs": [
        {
          "internalType": "uint256",
          "name": "tokenId",
          "type": "uint256"
        }
      ],
      "name": "fetchItemViews",
      "outputs": [
        {
          "internalType": "uint256",
          "name": "",
          "type": "uint256"
        }
      ],
      "stateMutability": "view",
      "type": "function"
    },
    {
      "inputs": [],
      "name": "fetchMyAmarums",
      "outputs": [
        {
          "components": [
            {
              "internalType": "uint256",
              "name": "tokenId",
              "type": "uint256"
            },
            {
              "internalType": "address payable",
              "name": "author",
              "type": "address"
            },
            {
              "internalType": "address payable",
              "name": "owner",
              "type": "address"
            },
            {
              "internalType": "uint256",
              "name": "dateCreated",
              "type": "uint256"
            },
            {
              "internalType": "bool",
              "name": "approved",
              "type": "bool"
            }
          ],
          "internalType": "struct AmarumNFT.AmarumItem[]",
          "name": "",
          "type": "tuple[]"
        }
      ],
      "stateMutability": "view",
      "type": "function"
    },
    {
      "inputs": [
        {
          "internalType": "uint256",
          "name": "_tokenId",
          "type": "uint256"
        }
      ],
      "name": "fetchOneAmarum",
      "outputs": [
        {
          "components": [
            {
              "internalType": "uint256",
              "name": "tokenId",
              "type": "uint256"
            },
            {
              "internalType": "address payable",
              "name": "author",
              "type": "address"
            },
            {
              "internalType": "address payable",
              "name": "owner",
              "type": "address"
            },
            {
              "internalType": "uint256",
              "name": "dateCreated",
              "type": "uint256"
            },
            {
              "internalType": "bool",
              "name": "approved",
              "type": "bool"
            }
          ],
          "internalType": "struct AmarumNFT.AmarumItem[]",
          "name": "",
          "type": "tuple[]"
        }
      ],
      "stateMutability": "view",
      "type": "function"
    },
    {
      "inputs": [],
      "name": "fetchTotalViews",
      "outputs": [
        {
          "internalType": "uint256",
          "name": "",
          "type": "uint256"
        }
      ],
      "stateMutability": "view",
      "type": "function"
    },
    {
      "inputs": [
        {
          "internalType": "uint256",
          "name": "tokenId",
          "type": "uint256"
        }
      ],
      "name": "getApproved",
      "outputs": [
        {
          "internalType": "address",
          "name": "",
          "type": "address"
        }
      ],
      "stateMutability": "view",
      "type": "function"
    },
    {
      "inputs": [
        {
          "internalType": "address",
          "name": "owner",
          "type": "address"
        },
        {
          "internalType": "address",
          "name": "operator",
          "type": "address"
        }
      ],
      "name": "isApprovedForAll",
      "outputs": [
        {
          "internalType": "bool",
          "name": "",
          "type": "bool"
        }
      ],
      "stateMutability": "view",
      "type": "function"
    },
    {
      "inputs": [],
      "name": "joinDao",
      "outputs": [],
      "stateMutability": "payable",
      "type": "function"
    },
    {
      "inputs": [
        {
          "internalType": "string",
          "name": "url",
          "type": "string"
        },
        {
          "internalType": "string",
          "name": "dealId",
          "type": "string"
        },
        {
          "internalType": "string",
          "name": "pieceCid",
          "type": "string"
        }
      ],
      "name": "minerSubmission",
      "outputs": [],
      "stateMutability": "nonpayable",
      "type": "function"
    },
    {
      "inputs": [],
      "name": "name",
      "outputs": [
        {
          "internalType": "string",
          "name": "",
          "type": "string"
        }
      ],
      "stateMutability": "view",
      "type": "function"
    },
    {
      "inputs": [
        {
          "internalType": "uint256",
          "name": "tokenId",
          "type": "uint256"
        }
      ],
      "name": "ownerOf",
      "outputs": [
        {
          "internalType": "address",
          "name": "",
          "type": "address"
        }
      ],
      "stateMutability": "view",
      "type": "function"
    },
    {
      "inputs": [
        {
          "internalType": "address",
          "name": "from",
          "type": "address"
        },
        {
          "internalType": "address",
          "name": "to",
          "type": "address"
        },
        {
          "internalType": "uint256",
          "name": "tokenId",
          "type": "uint256"
        }
      ],
      "name": "safeTransferFrom",
      "outputs": [],
      "stateMutability": "nonpayable",
      "type": "function"
    },
    {
      "inputs": [
        {
          "internalType": "address",
          "name": "from",
          "type": "address"
        },
        {
          "internalType": "address",
          "name": "to",
          "type": "address"
        },
        {
          "internalType": "uint256",
          "name": "tokenId",
          "type": "uint256"
        },
        {
          "internalType": "bytes",
          "name": "data",
          "type": "bytes"
        }
      ],
      "name": "safeTransferFrom",
      "outputs": [],
      "stateMutability": "nonpayable",
      "type": "function"
    },
    {
      "inputs": [
        {
          "internalType": "address",
          "name": "operator",
          "type": "address"
        },
        {
          "internalType": "bool",
          "name": "approved",
          "type": "bool"
        }
      ],
      "name": "setApprovalForAll",
      "outputs": [],
      "stateMutability": "nonpayable",
      "type": "function"
    },
    {
      "inputs": [
        {
          "internalType": "bytes4",
          "name": "interfaceId",
          "type": "bytes4"
        }
      ],
      "name": "supportsInterface",
      "outputs": [
        {
          "internalType": "bool",
          "name": "",
          "type": "bool"
        }
      ],
      "stateMutability": "view",
      "type": "function"
    },
    {
      "inputs": [],
      "name": "symbol",
      "outputs": [
        {
          "internalType": "string",
          "name": "",
          "type": "string"
        }
      ],
      "stateMutability": "view",
      "type": "function"
    },
    {
      "inputs": [
        {
          "internalType": "uint256",
          "name": "tokenId",
          "type": "uint256"
        }
      ],
      "name": "tokenURI",
      "outputs": [
        {
          "internalType": "string",
          "name": "",
          "type": "string"
        }
      ],
      "stateMutability": "view",
      "type": "function"
    },
    {
      "inputs": [],
      "name": "totalVotes",
      "outputs": [
        {
          "internalType": "uint256",
          "name": "",
          "type": "uint256"
        }
      ],
      "stateMutability": "view",
      "type": "function"
    },
    {
      "inputs": [
        {
          "internalType": "address",
          "name": "from",
          "type": "address"
        },
        {
          "internalType": "address",
          "name": "to",
          "type": "address"
        },
        {
          "internalType": "uint256",
          "name": "tokenId",
          "type": "uint256"
        }
      ],
      "name": "transferFrom",
      "outputs": [],
      "stateMutability": "nonpayable",
      "type": "function"
    },
    {
      "inputs": [
        {
          "internalType": "string",
          "name": "url",
          "type": "string"
        }
      ],
      "name": "voteForRepo",
      "outputs": [],
      "stateMutability": "nonpayable",
      "type": "function"
    },
    {
      "inputs": [
        {
          "internalType": "uint256",
          "name": "value",
          "type": "uint256"
        }
      ],
      "name": "withdraw",
      "outputs": [],
      "stateMutability": "nonpayable",
      "type": "function"
    }
  ],
  "bytecode": "0x60806040523480156200001157600080fd5b506040518060400160405280601481526020017f416d6172756d20566964656f2d446174617365740000000000000000000000008152506040518060400160405280600381526020016256445360e81b8152508160009081620000759190620001c8565b506001620000848282620001c8565b5050600b8054336001600160a01b03199182168117909255600c805490911690911790555062000298565b634e487b7160e01b600052604160045260246000fd5b634e487b7160e01b600052602260045260246000fd5b600281046001821680620000f057607f821691505b602082108103620001055762000105620000c5565b50919050565b60006200011c620001198381565b90565b92915050565b6200012d836200010b565b81546008840282811b60001990911b908116901990911617825550505050565b60006200015c81848462000122565b505050565b818110156200018057620001776000826200014d565b60010162000161565b5050565b601f8211156200015c576000818152602090206020601f85010481016020851015620001ad5750805b620001c16020601f86010483018262000161565b5050505050565b81516001600160401b03811115620001e457620001e4620000af565b620001f08254620000db565b620001fd82828562000184565b6020601f8311600181146200023457600084156200021b5750858201515b600019600886021c198116600286021786555062000290565b600085815260208120601f198616915b8281101562000266578885015182556020948501946001909201910162000244565b86831015620002835784890151600019601f89166008021c191682555b6001600288020188555050505b505050505050565b61370380620002a86000396000f3fe60806040526004361061024f5760003560e01c806384df677e11610138578063c87b56dd116100b0578063e985e9c51161007f578063f851a44011610064578063f851a440146106ae578063fef6b327146106ce578063ffcb4009146106e557600080fd5b8063e985e9c514610650578063f55be0861461069957600080fd5b8063c87b56dd146105f3578063d69b36f814610613578063d6eb548614610633578063dd61fc891461064857600080fd5b806395d89b4111610107578063a22cb465116100ec578063a22cb46514610593578063b7ebf235146105b3578063b88d4fde146105d357600080fd5b806395d89b4114610569578063999136d01461057e57600080fd5b806384df677e1461048b5780638727f720146104c15780638b0f74a6146104e1578063959068ea1461050157600080fd5b80633152d38b116101cb57806345576f941161019a5780636352211e1161017f5780636352211e1461043557806370a0823114610455578063766718081461047557600080fd5b806345576f941461040d57806361ca6cc31461042057600080fd5b80633152d38b1461039657806338c1ee7f146103b65780633c8f2823146103cd57806342842e0e146103ed57600080fd5b80630d15fd771161022257806321ab018a1161020757806321ab018a1461034057806323b872dd146103565780632e1a7d4d1461037657600080fd5b80630d15fd77146102fb5780631407a2371461031e57600080fd5b806301ffc9a71461025457806306fdde031461028a578063081812fc146102ac578063095ea7b3146102d9575b600080fd5b34801561026057600080fd5b5061027461026f36600461270f565b6106fa565b604051610281919061273a565b60405180910390f35b34801561029657600080fd5b5061029f61073e565b604051610281919061279e565b3480156102b857600080fd5b506102cc6102c73660046127c0565b6107d0565b60405161028191906127fb565b3480156102e557600080fd5b506102f96102f436600461281d565b6107f7565b005b34801561030757600080fd5b50610311600f5481565b6040516102819190612860565b34801561032a57600080fd5b506103336108a3565b6040516102819190612928565b34801561034c57600080fd5b50610311600e5481565b34801561036257600080fd5b506102f9610371366004612939565b610a2d565b34801561038257600080fd5b506102f96103913660046127c0565b610a5e565b3480156103a257600080fd5b506102f96103b1366004612a7c565b610b2d565b3480156103c257600080fd5b50600a546103119081565b3480156103d957600080fd5b506102f96103e83660046127c0565b610ea6565b3480156103f957600080fd5b506102f9610408366004612939565b610f5a565b61031161041b366004612b12565b610f75565b34801561042c57600080fd5b506102f9610faf565b34801561044157600080fd5b506102cc6104503660046127c0565b610ff3565b34801561046157600080fd5b50610311610470366004612b4d565b611028565b34801561048157600080fd5b50610311600d5481565b34801561049757600080fd5b506104ab6104a6366004612b12565b61106c565b6040516102819a99989796959493929190612b6e565b3480156104cd57600080fd5b506103116104dc3660046127c0565b611271565b3480156104ed57600080fd5b506103336104fc3660046127c0565b6112da565b34801561050d57600080fd5b5061055861051c366004612b4d565b6010602052600090815260409020805460018201546002830154600384015460049094015492936001600160a01b039092169290919060ff1685565b604051610281959493929190612c16565b34801561057557600080fd5b5061029f6114a2565b34801561058a57600080fd5b506102f96114b1565b34801561059f57600080fd5b506102f96105ae366004612c75565b6114ee565b3480156105bf57600080fd5b506102f96105ce366004612b12565b6114f9565b3480156105df57600080fd5b506102f96105ee366004612ca8565b61178d565b3480156105ff57600080fd5b5061029f61060e3660046127c0565b6117c5565b34801561061f57600080fd5b506102f961062e3660046127c0565b6118d5565b34801561063f57600080fd5b50610333611966565b6102f9611b3a565b34801561065c57600080fd5b5061027461066b366004612d27565b6001600160a01b03918216600090815260056020908152604080832093909416825291909152205460ff1690565b3480156106a557600080fd5b50610311611c11565b3480156106ba57600080fd5b50600c546102cc906001600160a01b031681565b3480156106da57600080fd5b506009546103119081565b3480156106f157600080fd5b50610333611c1d565b60006001600160e01b031982167f49064906000000000000000000000000000000000000000000000000000000001480610738575061073882611deb565b92915050565b60606000805461074d90612d70565b80601f016020809104026020016040519081016040528092919081815260200182805461077990612d70565b80156107c65780601f1061079b576101008083540402835291602001916107c6565b820191906000526020600020905b8154815290600101906020018083116107a957829003601f168201915b5050505050905090565b60006107db82611e86565b506000908152600460205260409020546001600160a01b031690565b600061080282610ff3565b9050806001600160a01b0316836001600160a01b03160361083e5760405162461bcd60e51b815260040161083590612df9565b60405180910390fd5b336001600160a01b038216148061087857506001600160a01b038116600090815260056020908152604080832033845290915290205460ff165b6108945760405162461bcd60e51b815260040161083590612e63565b61089e8383611eba565b505050565b606060006108b060075490565b905060006108bd60075490565b90506000808267ffffffffffffffff8111156108db576108db612989565b60405190808252806020026020018201604052801561093457816020015b6040805160a0810182526000808252602080830182905292820181905260608201819052608082015282526000199092019101816108f95790505b50905060005b84811015610a24573060126000610952846001612e89565b81526020810191909152604001600020600201546001600160a01b031603610a12576000610981826001612e89565b600081815260126020908152604091829020825160a0810184528154815260018201546001600160a01b039081169382019390935260028201549092169282019290925260038201546060820152600482015460ff1615156080820152855192935090918590879081106109f7576109f7612e9c565b6020908102919091010152610a0d600186612e89565b945050505b80610a1c81612eb2565b91505061093a565b50949350505050565b610a373382611f28565b610a535760405162461bcd60e51b815260040161083590612f26565b61089e838383611fa6565b600b546001600160a01b03163314610a885760405162461bcd60e51b815260040161083590612f6d565b47811115610aa85760405162461bcd60e51b815260040161083590612fb1565b600b546040516000916001600160a01b0316908390610ac690612fc4565b60006040518083038185875af1925050503d8060008114610b03576040519150601f19603f3d011682016040523d82523d6000602084013e610b08565b606091505b5050905080610b295760405162461bcd60e51b815260040161083590613000565b5050565b600e54600214610b4f5760405162461bcd60e51b81526004016108359061306a565b6000601184604051610b61919061309c565b908152602001604051809103902060405180610140016040529081600082018054610b8b90612d70565b80601f0160208091040260200160405190810160405280929190818152602001828054610bb790612d70565b8015610c045780601f10610bd957610100808354040283529160200191610c04565b820191906000526020600020905b815481529060010190602001808311610be757829003601f168201915b50505050508152602001600182018054610c1d90612d70565b80601f0160208091040260200160405190810160405280929190818152602001828054610c4990612d70565b8015610c965780601f10610c6b57610100808354040283529160200191610c96565b820191906000526020600020905b815481529060010190602001808311610c7957829003601f168201915b50505050508152602001600282018054610caf90612d70565b80601f0160208091040260200160405190810160405280929190818152602001828054610cdb90612d70565b8015610d285780601f10610cfd57610100808354040283529160200191610d28565b820191906000526020600020905b815481529060010190602001808311610d0b57829003601f168201915b505050918352505060038201546001600160a01b0316602082015260048201546040820152600582015460ff80821615156060840152610100909104811615156080830152600683015460a0830152600783015460c0830152600890920154909116151560e09091015261012081015190915015610dbc576020810183905260408101829052600160a08201523360608201525b80601185604051610dcd919061309c565b90815260405190819003602001902081518190610dea9082613145565b5060208201516001820190610dff9082613145565b5060408201516002820190610e149082613145565b5060608201516003820180546001600160a01b0319166001600160a01b039092169190911790556080820151600482015560a082015160058201805460c085015161ffff1990911692151561ff00191692909217610100921515830217905560e083015160068301558201516007820155610120909101516008909101805460ff191691151591909117905550505050565b610eb4600980546001019055565b6000610ebf60095490565b60408051606081018252828152602080820186815233838501818152600087815260139094529285902093518455905160018401559051600290920180546001600160a01b0319166001600160a01b0390931692909217909155905191925082917f76eeab97092ad834df0b561eae45cd54f5583ebef4240be2483d115d9fb4ed6191610f4e91869190613209565b60405180910390a25050565b61089e8383836040518060200160405280600081525061178d565b6000610f85600780546001019055565b6000610f9060075490565b9050610f9c33826120ce565b610fa681846121c9565b61073881612251565b600c546001600160a01b03163314610fd95760405162461bcd60e51b815260040161083590613258565b6001600e6000828254610fec9190612e89565b9091555050565b6000818152600260205260408120546001600160a01b0316806107385760405162461bcd60e51b81526004016108359061329c565b60006001600160a01b0382166110505760405162461bcd60e51b815260040161083590613306565b506001600160a01b031660009081526003602052604090205490565b805160208183018101805160118252928201919093012091528054819061109290612d70565b80601f01602080910402602001604051908101604052809291908181526020018280546110be90612d70565b801561110b5780601f106110e05761010080835404028352916020019161110b565b820191906000526020600020905b8154815290600101906020018083116110ee57829003601f168201915b50505050509080600101805461112090612d70565b80601f016020809104026020016040519081016040528092919081815260200182805461114c90612d70565b80156111995780601f1061116e57610100808354040283529160200191611199565b820191906000526020600020905b81548152906001019060200180831161117c57829003601f168201915b5050505050908060020180546111ae90612d70565b80601f01602080910402602001604051908101604052809291908181526020018280546111da90612d70565b80156112275780601f106111fc57610100808354040283529160200191611227565b820191906000526020600020905b81548152906001019060200180831161120a57829003601f168201915b505050506003830154600484015460058501546006860154600787015460089097015495966001600160a01b039094169592945060ff80831694610100909304811693919291168a565b60008061127d60095490565b90506000805b828110156112d257846013600061129b846001612e89565b815260200190815260200160002060010154036112c0576112bd600183612e89565b91505b806112ca81612eb2565b915050611283565b509392505050565b606060006112e760075490565b905060008060005b8381101561133e578560126000611307846001612e89565b8152602001908152602001600020600001540361132c57611329600184612e89565b92505b8061133681612eb2565b9150506112ef565b5060008267ffffffffffffffff81111561135a5761135a612989565b6040519080825280602002602001820160405280156113b357816020015b6040805160a0810182526000808252602080830182905292820181905260608201819052608082015282526000199092019101816113785790505b50905060005b848110156114985786601260006113d1846001612e89565b815260200190815260200160002060000154036114865760006113f5826001612e89565b600081815260126020908152604091829020825160a0810184528154815260018201546001600160a01b039081169382019390935260028201549092169282019290925260038201546060820152600482015460ff16151560808201528551929350909185908790811061146b5761146b612e9c565b6020908102919091010152611481600186612e89565b945050505b8061149081612eb2565b9150506113b9565b5095945050505050565b60606001805461074d90612d70565b600c546001600160a01b031633146114db5760405162461bcd60e51b815260040161083590613258565b6001600d6000828254610fec9190612e89565b610b29338383612321565b3360009081526010602052604090206004015460ff161561163357600e546001146115365760405162461bcd60e51b81526004016108359061334a565b601181604051611546919061309c565b9081526040519081900360200190206008015460ff161561163657336000908152601060205260409081902060020154905160119061158690849061309c565b908152602001604051809103902060040160008282546115a69190612e89565b9091555050336000908152601060205260408120600290810191909155600f546115d09190613370565b6011826040516115e0919061309c565b908152602001604051809103902060040154111561163357600160118260405161160a919061309c565b90815260405190819003602001902060050180549115156101000261ff00199092169190911790555b50565b60408051610140810182528281528151602081810184526000808352818401929092528351808201855282815283850152606083018290523382526010905282812060020154608083015260a0820181905260c0820181905260e082018190526101008201526001610120820152905181906011906116b690859061309c565b908152604051908190036020019020815181906116d39082613145565b50602082015160018201906116e89082613145565b50604082015160028201906116fd9082613145565b5060608201516003820180546001600160a01b0319166001600160a01b039092169190911790556080820151600482015560a082015160058201805460c085015161ffff1990911692151561ff00191692909217610100921515830217905560e083015160068301558201516007820155610120909101516008909101805460ff19169115159190911790555050565b6117973383611f28565b6117b35760405162461bcd60e51b815260040161083590612f26565b6117bf848484846123c3565b50505050565b60606117d082611e86565b600082815260066020526040812080546117e990612d70565b80601f016020809104026020016040519081016040528092919081815260200182805461181590612d70565b80156118625780601f1061183757610100808354040283529160200191611862565b820191906000526020600020905b81548152906001019060200180831161184557829003601f168201915b50505050509050600061188060408051602081019091526000815290565b90508051600003611892575092915050565b8151156118c45780826040516020016118ac929190613384565b60405160208183030381529060405292505050919050565b6118cd846123f6565b949350505050565b600c546001600160a01b031633146118ff5760405162461bcd60e51b815260040161083590613258565b6000818152601260205260409020600401805460ff19166001179055611929600a80546001019055565b807f7b3e57f92a64bfa12c15cfbeddc70d341fcd97a16b9e40d978ac7250d653de18334260405161195b92919061339c565b60405180910390a250565b6060600061197360075490565b905060008060005b838110156119d5573360126000611993846001612e89565b81526020810191909152604001600020600101546001600160a01b0316036119c3576119c0600184612e89565b92505b806119cd81612eb2565b91505061197b565b5060008267ffffffffffffffff8111156119f1576119f1612989565b604051908082528060200260200182016040528015611a4a57816020015b6040805160a081018252600080825260208083018290529282018190526060820181905260808201528252600019909201910181611a0f5790505b50905060005b84811015610a24573360126000611a68846001612e89565b81526020810191909152604001600020600101546001600160a01b031603611b28576000611a97826001612e89565b600081815260126020908152604091829020825160a0810184528154815260018201546001600160a01b039081169382019390935260028201549092169282019290925260038201546060820152600482015460ff161515608082015285519293509091859087908110611b0d57611b0d612e9c565b6020908102919091010152611b23600186612e89565b945050505b80611b3281612eb2565b915050611a50565b611b48600880546001019055565b6000611b5360085490565b905060006040518060a00160405280838152602001336001600160a01b03168152602001600181526020016001815260200160011515815250905034600f6000828254611ba09190612e89565b90915550503360009081526010602090815260409182902083518155908301516001820180546001600160a01b0319166001600160a01b03909216919091179055908201516002820155606082015160038201556080909101516004909101805460ff191691151591909117905550565b60008061073860095490565b60606000611c2a60075490565b905060008060005b83811015611c895760126000611c49836001612e89565b815260208101919091526040016000206004015460ff161515600103611c7757611c74600184612e89565b92505b80611c8181612eb2565b915050611c32565b5060008267ffffffffffffffff811115611ca557611ca5612989565b604051908082528060200260200182016040528015611cfe57816020015b6040805160a081018252600080825260208083018290529282018190526060820181905260808201528252600019909201910181611cc35790505b50905060005b84811015610a245760126000611d1b836001612e89565b815260208101919091526040016000206004015460ff161515600103611dd9576000611d48826001612e89565b600081815260126020908152604091829020825160a0810184528154815260018201546001600160a01b039081169382019390935260028201549092169282019290925260038201546060820152600482015460ff161515608082015285519293509091859087908110611dbe57611dbe612e9c565b6020908102919091010152611dd4600186612e89565b945050505b80611de381612eb2565b915050611d04565b60006001600160e01b031982167f80ac58cd000000000000000000000000000000000000000000000000000000001480611e4e57506001600160e01b031982167f5b5e139f00000000000000000000000000000000000000000000000000000000145b8061073857507f01ffc9a7000000000000000000000000000000000000000000000000000000006001600160e01b0319831614610738565b6000818152600260205260409020546001600160a01b03166116335760405162461bcd60e51b81526004016108359061329c565b600081815260046020526040902080546001600160a01b0319166001600160a01b0384169081179091558190611eef82610ff3565b6001600160a01b03167f8c5be1e5ebec7d5bd14f71427d1e84f3dd0314c0f7b2291e5b200ac8c7c3b92560405160405180910390a45050565b600080611f3483610ff3565b9050806001600160a01b0316846001600160a01b03161480611f7b57506001600160a01b0380821660009081526005602090815260408083209388168352929052205460ff165b806118cd5750836001600160a01b0316611f94846107d0565b6001600160a01b031614949350505050565b826001600160a01b0316611fb982610ff3565b6001600160a01b031614611fdf5760405162461bcd60e51b815260040161083590613411565b6001600160a01b0382166120055760405162461bcd60e51b81526004016108359061347b565b826001600160a01b031661201882610ff3565b6001600160a01b03161461203e5760405162461bcd60e51b815260040161083590613411565b600081815260046020908152604080832080546001600160a01b03199081169091556001600160a01b0387811680865260038552838620805460001901905590871680865283862080546001019055868652600290945282852080549092168417909155905184937fddf252ad1be2c89b69c2b068fc378daa952ba7f163c4a11628f55a4df523b3ef91a4505050565b6001600160a01b0382166120f45760405162461bcd60e51b8152600401610835906134bd565b6000818152600260205260409020546001600160a01b0316156121295760405162461bcd60e51b815260040161083590613501565b6000818152600260205260409020546001600160a01b03161561215e5760405162461bcd60e51b815260040161083590613501565b6001600160a01b038216600081815260036020908152604080832080546001019055848352600290915280822080546001600160a01b0319168417905551839291907fddf252ad1be2c89b69c2b068fc378daa952ba7f163c4a11628f55a4df523b3ef908290a45050565b6000828152600260205260409020546001600160a01b03166121fd5760405162461bcd60e51b81526004016108359061356b565b60008281526006602052604090206122158282613145565b507ff8e1a15aba9398e019f0b49df1a4fde98ee17ae345cb5f6b5e2c27f5033e8ce7826040516122459190612860565b60405180910390a15050565b6040805160a0810182528281523360208083018281523084860181815242606087019081526000608088018181528a82526012909652979097209551865591516001860180546001600160a01b03199081166001600160a01b0393841617909155925160028701805490941691161790915593516003840155516004909201805460ff1916921515929092179091556122ea9183611fa6565b807fff513e2fc6d4a0ccdfa78b3926e8b23bc6e2ad1329d9cd8a9cdee77c75d14b65333042600060405161195b949392919061357b565b816001600160a01b0316836001600160a01b0316036123525760405162461bcd60e51b8152600401610835906135ed565b6001600160a01b0383811660008181526005602090815260408083209487168084529490915290819020805460ff1916851515179055517f17307eab39ab6107e8899845ad3d59bd9653f200f220920489ca2b5937696c31906123b690859061273a565b60405180910390a3505050565b6123ce848484611fa6565b6123da8484848461246a565b6117bf5760405162461bcd60e51b815260040161083590613657565b606061240182611e86565b600061241860408051602081019091526000815290565b905060008151116124385760405180602001604052806000815250612463565b806124428461256b565b604051602001612453929190613384565b6040516020818303038152906040525b9392505050565b60006001600160a01b0384163b1561256057604051630a85bd0160e11b81526001600160a01b0385169063150b7a02906124ae903390899088908890600401613667565b6020604051808303816000875af19250505080156124e9575060408051601f3d908101601f191682019092526124e6918101906136ac565b60015b612546573d808015612517576040519150601f19603f3d011682016040523d82523d6000602084013e61251c565b606091505b50805160000361253e5760405162461bcd60e51b815260040161083590613657565b805181602001fd5b6001600160e01b031916630a85bd0160e11b1490506118cd565b506001949350505050565b606060006125788361260b565b600101905060008167ffffffffffffffff81111561259857612598612989565b6040519080825280601f01601f1916602001820160405280156125c2576020820181803683370190505b5090508181016020015b600019017f3031323334353637383961626364656600000000000000000000000000000000600a86061a8153600a85049450846125cc57509392505050565b6000807a184f03e93ff9f4daa797ed6e38ed64bf6a1f0100000000000000008310612654577a184f03e93ff9f4daa797ed6e38ed64bf6a1f010000000000000000830492506040015b6d04ee2d6d415b85acef81000000008310612680576d04ee2d6d415b85acef8100000000830492506020015b662386f26fc10000831061269e57662386f26fc10000830492506010015b6305f5e10083106126b6576305f5e100830492506008015b61271083106126ca57612710830492506004015b606483106126dc576064830492506002015b600a83106107385760010192915050565b6001600160e01b031981165b811461163357600080fd5b8035610738816126ed565b60006020828403121561272457612724600080fd5b60006118cd8484612704565b8015155b82525050565b602081016107388284612730565b60005b8381101561276357818101518382015260200161274b565b50506000910152565b6000612776825190565b80845260208401935061278d818560208601612748565b601f01601f19169290920192915050565b60208082528101612463818461276c565b806126f9565b8035610738816127af565b6000602082840312156127d5576127d5600080fd5b60006118cd84846127b5565b60006001600160a01b038216610738565b612734816127e1565b6020810161073882846127f2565b6126f9816127e1565b803561073881612809565b6000806040838503121561283357612833600080fd5b600061283f8585612812565b9250506020612850858286016127b5565b9150509250929050565b80612734565b60208101610738828461285a565b805160a083019061287f848261285a565b50602082015161289260208501826127f2565b5060408201516128a560408501826127f2565b5060608201516128b8606085018261285a565b5060808201516117bf6080850182612730565b60006128d7838361286e565b505060a00190565b60006128e9825190565b80845260209384019383018060005b8381101561291d57815161290c88826128cb565b9750602083019250506001016128f8565b509495945050505050565b6020808252810161246381846128df565b60008060006060848603121561295157612951600080fd5b600061295d8686612812565b935050602061296e86828701612812565b925050604061297f868287016127b5565b9150509250925092565b634e487b7160e01b600052604160045260246000fd5b601f19601f830116810181811067ffffffffffffffff821117156129c5576129c5612989565b6040525050565b60006129d760405190565b90506129e3828261299f565b919050565b600067ffffffffffffffff821115612a0257612a02612989565b601f19601f83011660200192915050565b82818337506000910152565b6000612a32612a2d846129e8565b6129cc565b905082815260208101848484011115612a4d57612a4d600080fd5b6112d2848285612a13565b600082601f830112612a6c57612a6c600080fd5b81356118cd848260208601612a1f565b600080600060608486031215612a9457612a94600080fd5b833567ffffffffffffffff811115612aae57612aae600080fd5b612aba86828701612a58565b935050602084013567ffffffffffffffff811115612ada57612ada600080fd5b612ae686828701612a58565b925050604084013567ffffffffffffffff811115612b0657612b06600080fd5b61297f86828701612a58565b600060208284031215612b2757612b27600080fd5b813567ffffffffffffffff811115612b4157612b41600080fd5b6118cd84828501612a58565b600060208284031215612b6257612b62600080fd5b60006118cd8484612812565b6101408082528101612b80818d61276c565b90508181036020830152612b94818c61276c565b90508181036040830152612ba8818b61276c565b9050612bb7606083018a6127f2565b612bc4608083018961285a565b612bd160a0830188612730565b612bde60c0830187612730565b612beb60e083018661285a565b612bf961010083018561285a565b612c07610120830184612730565b9b9a5050505050505050505050565b60a08101612c24828861285a565b612c3160208301876127f2565b612c3e604083018661285a565b612c4b606083018561285a565b612c586080830184612730565b9695505050505050565b8015156126f9565b803561073881612c62565b60008060408385031215612c8b57612c8b600080fd5b6000612c978585612812565b925050602061285085828601612c6a565b60008060008060808587031215612cc157612cc1600080fd5b6000612ccd8787612812565b9450506020612cde87828801612812565b9350506040612cef878288016127b5565b925050606085013567ffffffffffffffff811115612d0f57612d0f600080fd5b612d1b87828801612a58565b91505092959194509250565b60008060408385031215612d3d57612d3d600080fd5b6000612d498585612812565b925050602061285085828601612812565b634e487b7160e01b600052602260045260246000fd5b600281046001821680612d8457607f821691505b602082108103612d9657612d96612d5a565b50919050565b602181526000602082017f4552433732313a20617070726f76616c20746f2063757272656e74206f776e6581527f7200000000000000000000000000000000000000000000000000000000000000602082015291505b5060400190565b6020808252810161073881612d9c565b603d81526000602082017f4552433732313a20617070726f76652063616c6c6572206973206e6f7420746f81527f6b656e206f776e6572206f7220617070726f76656420666f7220616c6c00000060208201529150612df2565b6020808252810161073881612e09565b634e487b7160e01b600052601160045260246000fd5b8082018082111561073857610738612e73565b634e487b7160e01b600052603260045260246000fd5b60006000198203612ec557612ec5612e73565b5060010190565b602d81526000602082017f4552433732313a2063616c6c6572206973206e6f7420746f6b656e206f776e6581527f72206f7220617070726f7665640000000000000000000000000000000000000060208201529150612df2565b6020808252810161073881612ecc565b601881526000602082017f41646472657373206973206e6f7420746865206f776e65720000000000000000815291505b5060200190565b6020808252810161073881612f36565b601a81526000602082017f56616c756520686967686572207468616e2062616c616e63652e00000000000081529150612f66565b6020808252810161073881612f7d565b90565b600081610738565b601381526000602082017f54686572652077617320616e206572726f72210000000000000000000000000081529150612f66565b6020808252810161073881612fcc565b602381526000602082017f496e636f727265637420737461676520666f72206d696e65725375626d69737381527f696f6e000000000000000000000000000000000000000000000000000000000060208201529150612df2565b6020808252810161073881613010565b6000613084825190565b613092818560208601612748565b9290920192915050565b6000612463828461307a565b6000610738612fc18381565b6130bd836130a8565b81546008840282811b60001990911b908116901990911617825550505050565b600061089e8184846130b4565b81811015610b29576130fd6000826130dd565b6001016130ea565b601f82111561089e576000818152602090206020601f8501048101602085101561312c5750805b61313e6020601f8601048301826130ea565b5050505050565b815167ffffffffffffffff81111561315f5761315f612989565b6131698254612d70565b613174828285613105565b6020601f8311600181146131a857600084156131905750858201515b600019600886021c1981166002860217865550613201565b600085815260208120601f198616915b828110156131d857888501518255602094850194600190920191016131b8565b868310156131f45784890151600019601f89166008021c191682555b6001600288020188555050505b505050505050565b60408101613217828561285a565b61246360208301846127f2565b601581526000602082017f4f6e6c792061646d696e2063616e20637265617465000000000000000000000081529150612f66565b6020808252810161073881613224565b601881526000602082017f4552433732313a20696e76616c696420746f6b656e204944000000000000000081529150612f66565b6020808252810161073881613268565b602981526000602082017f4552433732313a2061646472657373207a65726f206973206e6f74206120766181527f6c6964206f776e6572000000000000000000000000000000000000000000000060208201529150612df2565b60208082528101610738816132ac565b601f81526000602082017f496e636f727265637420737461676520666f7220766f7465466f725265706f0081529150612f66565b6020808252810161073881613316565b634e487b7160e01b600052601260045260246000fd5b60008261337f5761337f61335a565b500490565b6000613390828561307a565b91506118cd828461307a565b604081016133aa82856127f2565b612463602083018461285a565b602581526000602082017f4552433732313a207472616e736665722066726f6d20696e636f72726563742081527f6f776e657200000000000000000000000000000000000000000000000000000060208201529150612df2565b60208082528101610738816133b7565b602481526000602082017f4552433732313a207472616e7366657220746f20746865207a65726f2061646481527f726573730000000000000000000000000000000000000000000000000000000060208201529150612df2565b6020808252810161073881613421565b60208082527f4552433732313a206d696e7420746f20746865207a65726f206164647265737391019081526000612f66565b602080825281016107388161348b565b601c81526000602082017f4552433732313a20746f6b656e20616c7265616479206d696e7465640000000081529150612f66565b60208082528101610738816134cd565b602e81526000602082017f45524337323155524953746f726167653a2055524920736574206f66206e6f6e81527f6578697374656e7420746f6b656e00000000000000000000000000000000000060208201529150612df2565b6020808252810161073881613511565b6080810161358982876127f2565b61359660208301866127f2565b6135a3604083018561285a565b6135b06060830184612730565b95945050505050565b601981526000602082017f4552433732313a20617070726f766520746f2063616c6c65720000000000000081529150612f66565b60208082528101610738816135b9565b603281526000602082017f4552433732313a207472616e7366657220746f206e6f6e20455243373231526581527f63656976657220696d706c656d656e746572000000000000000000000000000060208201529150612df2565b60208082528101610738816135fd565b6080810161367582876127f2565b61368260208301866127f2565b61368f604083018561285a565b8181036060830152612c58818461276c565b8051610738816126ed565b6000602082840312156136c1576136c1600080fd5b60006118cd84846136a156fea26469706673582212202471dd627726a2356e83b46adf7f5b66d3e7f3fd6a09695a381eef22a3dd991264736f6c63430008110033",
  "linkReferences": {},
  "deployedLinkReferences": {}
}