{
  "_format": "hh-sol-artifact-1",
  "contractName": "DAONFT",
  "sourceName": "contracts/DAONFT.sol",
  "abi": [
    {
      "inputs": [],
      "stateMutability": "nonpayable",
      "type": "constructor"
    },
    {
      "anonymous": false,
      "inputs": [
        {
          "indexed": true,
          "internalType": "address",
          "name": "owner",
          "type": "address"
        },
        {
          "indexed": true,
          "internalType": "address",
          "name": "approved",
          "type": "address"
        },
        {
          "indexed": true,
          "internalType": "uint256",
          "name": "tokenId",
          "type": "uint256"
        }
      ],
      "name": "Approval",
      "type": "event"
    },
    {
      "anonymous": false,
      "inputs": [
        {
          "indexed": true,
          "internalType": "address",
          "name": "owner",
          "type": "address"
        },
        {
          "indexed": true,
          "internalType": "address",
          "name": "operator",
          "type": "address"
        },
        {
          "indexed": false,
          "internalType": "bool",
          "name": "approved",
          "type": "bool"
        }
      ],
      "name": "ApprovalForAll",
      "type": "event"
    },
    {
      "anonymous": false,
      "inputs": [
        {
          "indexed": false,
          "internalType": "uint256",
          "name": "_fromTokenId",
          "type": "uint256"
        },
        {
          "indexed": false,
          "internalType": "uint256",
          "name": "_toTokenId",
          "type": "uint256"
        }
      ],
      "name": "BatchMetadataUpdate",
      "type": "event"
    },
    {
      "anonymous": false,
      "inputs": [
        {
          "indexed": true,
          "internalType": "uint256",
          "name": "tokenId",
          "type": "uint256"
        },
        {
          "indexed": false,
          "internalType": "address",
          "name": "seller",
          "type": "address"
        },
        {
          "indexed": false,
          "internalType": "address",
          "name": "owner",
          "type": "address"
        },
        {
          "indexed": false,
          "internalType": "uint256",
          "name": "price",
          "type": "uint256"
        },
        {
          "indexed": false,
          "internalType": "bool",
          "name": "sold",
          "type": "bool"
        }
      ],
      "name": "MarketItemCreated",
      "type": "event"
    },
    {
      "anonymous": false,
      "inputs": [
        {
          "indexed": false,
          "internalType": "uint256",
          "name": "_tokenId",
          "type": "uint256"
        }
      ],
      "name": "MetadataUpdate",
      "type": "event"
    },
    {
      "anonymous": false,
      "inputs": [
        {
          "indexed": true,
          "internalType": "address",
          "name": "from",
          "type": "address"
        },
        {
          "indexed": true,
          "internalType": "address",
          "name": "to",
          "type": "address"
        },
        {
          "indexed": true,
          "internalType": "uint256",
          "name": "tokenId",
          "type": "uint256"
        }
      ],
      "name": "Transfer",
      "type": "event"
    },
    {
      "stateMutability": "payable",
      "type": "fallback"
    },
    {
      "inputs": [],
      "name": "_tokenIds",
      "outputs": [
        {
          "internalType": "uint256",
          "name": "_value",
          "type": "uint256"
        }
      ],
      "stateMutability": "view",
      "type": "function"
    },
    {
      "inputs": [
        {
          "internalType": "address",
          "name": "to",
          "type": "address"
        },
        {
          "internalType": "uint256",
          "name": "tokenId",
          "type": "uint256"
        }
      ],
      "name": "approve",
      "outputs": [],
      "stateMutability": "nonpayable",
      "type": "function"
    },
    {
      "inputs": [
        {
          "internalType": "address",
          "name": "owner",
          "type": "address"
        }
      ],
      "name": "balanceOf",
      "outputs": [
        {
          "internalType": "uint256",
          "name": "",
          "type": "uint256"
        }
      ],
      "stateMutability": "view",
      "type": "function"
    },
    {
      "inputs": [],
      "name": "createToken",
      "outputs": [
        {
          "internalType": "uint256",
          "name": "",
          "type": "uint256"
        }
      ],
      "stateMutability": "payable",
      "type": "function"
    },
    {
      "inputs": [
        {
          "internalType": "uint256",
          "name": "tokenId",
          "type": "uint256"
        }
      ],
      "name": "getApproved",
      "outputs": [
        {
          "internalType": "address",
          "name": "",
          "type": "address"
        }
      ],
      "stateMutability": "view",
      "type": "function"
    },
    {
      "inputs": [],
      "name": "getBalance",
      "outputs": [
        {
          "internalType": "uint256",
          "name": "",
          "type": "uint256"
        }
      ],
      "stateMutability": "view",
      "type": "function"
    },
    {
      "inputs": [],
      "name": "getMembershipPrice",
      "outputs": [
        {
          "internalType": "uint256",
          "name": "",
          "type": "uint256"
        }
      ],
      "stateMutability": "view",
      "type": "function"
    },
    {
      "inputs": [
        {
          "internalType": "address",
          "name": "owner",
          "type": "address"
        },
        {
          "internalType": "address",
          "name": "operator",
          "type": "address"
        }
      ],
      "name": "isApprovedForAll",
      "outputs": [
        {
          "internalType": "bool",
          "name": "",
          "type": "bool"
        }
      ],
      "stateMutability": "view",
      "type": "function"
    },
    {
      "inputs": [],
      "name": "name",
      "outputs": [
        {
          "internalType": "string",
          "name": "",
          "type": "string"
        }
      ],
      "stateMutability": "view",
      "type": "function"
    },
    {
      "inputs": [
        {
          "internalType": "uint256",
          "name": "tokenId",
          "type": "uint256"
        }
      ],
      "name": "ownerOf",
      "outputs": [
        {
          "internalType": "address",
          "name": "",
          "type": "address"
        }
      ],
      "stateMutability": "view",
      "type": "function"
    },
    {
      "inputs": [
        {
          "internalType": "address",
          "name": "from",
          "type": "address"
        },
        {
          "internalType": "address",
          "name": "to",
          "type": "address"
        },
        {
          "internalType": "uint256",
          "name": "tokenId",
          "type": "uint256"
        }
      ],
      "name": "safeTransferFrom",
      "outputs": [],
      "stateMutability": "nonpayable",
      "type": "function"
    },
    {
      "inputs": [
        {
          "internalType": "address",
          "name": "from",
          "type": "address"
        },
        {
          "internalType": "address",
          "name": "to",
          "type": "address"
        },
        {
          "internalType": "uint256",
          "name": "tokenId",
          "type": "uint256"
        },
        {
          "internalType": "bytes",
          "name": "data",
          "type": "bytes"
        }
      ],
      "name": "safeTransferFrom",
      "outputs": [],
      "stateMutability": "nonpayable",
      "type": "function"
    },
    {
      "inputs": [
        {
          "internalType": "address",
          "name": "operator",
          "type": "address"
        },
        {
          "internalType": "bool",
          "name": "approved",
          "type": "bool"
        }
      ],
      "name": "setApprovalForAll",
      "outputs": [],
      "stateMutability": "nonpayable",
      "type": "function"
    },
    {
      "inputs": [
        {
          "internalType": "bytes4",
          "name": "interfaceId",
          "type": "bytes4"
        }
      ],
      "name": "supportsInterface",
      "outputs": [
        {
          "internalType": "bool",
          "name": "",
          "type": "bool"
        }
      ],
      "stateMutability": "view",
      "type": "function"
    },
    {
      "inputs": [],
      "name": "symbol",
      "outputs": [
        {
          "internalType": "string",
          "name": "",
          "type": "string"
        }
      ],
      "stateMutability": "view",
      "type": "function"
    },
    {
      "inputs": [
        {
          "internalType": "uint256",
          "name": "tokenId",
          "type": "uint256"
        }
      ],
      "name": "tokenURI",
      "outputs": [
        {
          "internalType": "string",
          "name": "",
          "type": "string"
        }
      ],
      "stateMutability": "view",
      "type": "function"
    },
    {
      "inputs": [
        {
          "internalType": "address",
          "name": "from",
          "type": "address"
        },
        {
          "internalType": "address",
          "name": "to",
          "type": "address"
        },
        {
          "internalType": "uint256",
          "name": "tokenId",
          "type": "uint256"
        }
      ],
      "name": "transferFrom",
      "outputs": [],
      "stateMutability": "nonpayable",
      "type": "function"
    },
    {
      "inputs": [
        {
          "internalType": "uint256",
          "name": "_MembershipPrice",
          "type": "uint256"
        }
      ],
      "name": "updateMembershipPrice",
      "outputs": [],
      "stateMutability": "payable",
      "type": "function"
    },
    {
      "inputs": [
        {
          "internalType": "uint256",
          "name": "value",
          "type": "uint256"
        }
      ],
      "name": "withdraw",
      "outputs": [],
      "stateMutability": "nonpayable",
      "type": "function"
    },
    {
      "stateMutability": "payable",
      "type": "receive"
    }
  ],
  "bytecode": "0x60806040526611c37937e080006008553480156200001c57600080fd5b506040518060400160405280601581526020017f41616d72756d204d656d62657273686970204e4654000000000000000000000081525060405180604001604052806005815260200164105353919560da1b8152508160009081620000829190620001c5565b506001620000918282620001c5565b5050600980546001600160a01b031916331790555062000295565b634e487b7160e01b600052604160045260246000fd5b634e487b7160e01b600052602260045260246000fd5b600281046001821680620000ed57607f821691505b602082108103620001025762000102620000c2565b50919050565b600062000119620001168381565b90565b92915050565b6200012a8362000108565b81546008840282811b60001990911b908116901990911617825550505050565b6000620001598184846200011f565b505050565b818110156200017d57620001746000826200014a565b6001016200015e565b5050565b601f82111562000159576000818152602090206020601f85010481016020851015620001aa5750805b620001be6020601f8601048301826200015e565b5050505050565b81516001600160401b03811115620001e157620001e1620000ac565b620001ed8254620000d8565b620001fa82828562000181565b6020601f831160018114620002315760008415620002185750858201515b600019600886021c19811660028602178655506200028d565b600085815260208120601f198616915b8281101562000263578885015182556020948501946001909201910162000241565b86831015620002805784890151600019601f89166008021c191682555b6001600288020188555050505b505050505050565b611fa780620002a56000396000f3fe6080604052600436106101335760003560e01c80636352211e116100b4578063aa46a4001161006e578063c87b56dd11610056578063c87b56dd14610326578063e985e9c514610346578063ebaa42ed1461038f57005b8063aa46a400146102ef578063b88d4fde1461030657005b806395d89b411161009c57806395d89b41146102b25780639cbf9e36146102c7578063a22cb465146102cf57005b80636352211e1461027257806370a082311461029257005b806312065fe01161010557806323b872dd116100ed57806323b872dd146102125780632e1a7d4d1461023257806342842e0e1461025257005b806312065fe0146101e15780631278076a146101fd57005b806301ffc9a71461013c57806306fdde0314610172578063081812fc14610194578063095ea7b3146101c157005b3661013a57005b005b34801561014857600080fd5b5061015c61015736600461127f565b6103a2565b60405161016991906112aa565b60405180910390f35b34801561017e57600080fd5b506101876103e6565b604051610169919061130e565b3480156101a057600080fd5b506101b46101af366004611330565b610478565b604051610169919061136b565b3480156101cd57600080fd5b5061013a6101dc36600461138d565b61049f565b3480156101ed57600080fd5b50475b60405161016991906113d0565b34801561020957600080fd5b506008546101f0565b34801561021e57600080fd5b5061013a61022d3660046113de565b61054b565b34801561023e57600080fd5b5061013a61024d366004611330565b61057c565b34801561025e57600080fd5b5061013a61026d3660046113de565b61064b565b34801561027e57600080fd5b506101b461028d366004611330565b610666565b34801561029e57600080fd5b506101f06102ad36600461142e565b61069b565b3480156102be57600080fd5b506101876106df565b6101f06106ee565b3480156102db57600080fd5b5061013a6102ea366004611462565b61087e565b3480156102fb57600080fd5b506007546101f09081565b34801561031257600080fd5b5061013a610321366004611588565b610889565b34801561033257600080fd5b50610187610341366004611330565b6108c1565b34801561035257600080fd5b5061015c610361366004611607565b6001600160a01b03918216600090815260056020908152604080832093909416825291909152205460ff1690565b61013a61039d366004611330565b6109d1565b60006001600160e01b031982167f490649060000000000000000000000000000000000000000000000000000000014806103e057506103e082610a00565b92915050565b6060600080546103f590611650565b80601f016020809104026020016040519081016040528092919081815260200182805461042190611650565b801561046e5780601f106104435761010080835404028352916020019161046e565b820191906000526020600020905b81548152906001019060200180831161045157829003601f168201915b5050505050905090565b600061048382610a9b565b506000908152600460205260409020546001600160a01b031690565b60006104aa82610666565b9050806001600160a01b0316836001600160a01b0316036104e65760405162461bcd60e51b81526004016104dd906116d9565b60405180910390fd5b336001600160a01b038216148061052057506001600160a01b038116600090815260056020908152604080832033845290915290205460ff165b61053c5760405162461bcd60e51b81526004016104dd90611743565b6105468383610ad2565b505050565b6105553382610b4d565b6105715760405162461bcd60e51b81526004016104dd906117ad565b610546838383610bcb565b6009546001600160a01b031633146105a65760405162461bcd60e51b81526004016104dd906117f4565b478111156105c65760405162461bcd60e51b81526004016104dd90611838565b6009546040516000916001600160a01b03169083906105e49061184b565b60006040518083038185875af1925050503d8060008114610621576040519150601f19603f3d011682016040523d82523d6000602084013e610626565b606091505b50509050806106475760405162461bcd60e51b81526004016104dd90611887565b5050565b61054683838360405180602001604052806000815250610889565b6000818152600260205260408120546001600160a01b0316806103e05760405162461bcd60e51b81526004016104dd906118cb565b60006001600160a01b0382166106c35760405162461bcd60e51b81526004016104dd90611935565b506001600160a01b031660009081526003602052604090205490565b6060600180546103f590611650565b60006106fe600780546001019055565b600061070960075490565b9050600060085490506000604051806080016040528060598152602001611f196059913990506008543410156107515760405162461bcd60e51b81526004016104dd9061199f565b6040805160a08101825284815233602080830191825230838501818152606085018881526000608087018181528b8252600a90955287812096518755945160018701805473ffffffffffffffffffffffffffffffffffffffff199081166001600160a01b0393841617909155925160028801805490941691161790915551600385015590516004909301805460ff19169315159390931790925591516108fc85150290859084818181858888f193505050509050806108225760405162461bcd60e51b81526004016104dd906119e3565b61082c3385610d00565b6108368483610e08565b837fb640004f1d14576d0c209e240cad0410e0d8c0c33a09375861fbadae2588a98d333086600060405161086d94939291906119f3565b60405180910390a250919392505050565b610647338383610e90565b6108933383610b4d565b6108af5760405162461bcd60e51b81526004016104dd906117ad565b6108bb84848484610f32565b50505050565b60606108cc82610a9b565b600082815260066020526040812080546108e590611650565b80601f016020809104026020016040519081016040528092919081815260200182805461091190611650565b801561095e5780601f106109335761010080835404028352916020019161095e565b820191906000526020600020905b81548152906001019060200180831161094157829003601f168201915b50505050509050600061097c60408051602081019091526000815290565b9050805160000361098e575092915050565b8151156109c05780826040516020016109a8929190611a53565b60405160208183030381529060405292505050919050565b6109c984610f65565b949350505050565b6009546001600160a01b031633146109fb5760405162461bcd60e51b81526004016104dd90611ac5565b600855565b60006001600160e01b031982167f80ac58cd000000000000000000000000000000000000000000000000000000001480610a6357506001600160e01b031982167f5b5e139f00000000000000000000000000000000000000000000000000000000145b806103e057507f01ffc9a7000000000000000000000000000000000000000000000000000000006001600160e01b03198316146103e0565b6000818152600260205260409020546001600160a01b0316610acf5760405162461bcd60e51b81526004016104dd906118cb565b50565b6000818152600460205260409020805473ffffffffffffffffffffffffffffffffffffffff19166001600160a01b0384169081179091558190610b1482610666565b6001600160a01b03167f8c5be1e5ebec7d5bd14f71427d1e84f3dd0314c0f7b2291e5b200ac8c7c3b92560405160405180910390a45050565b600080610b5983610666565b9050806001600160a01b0316846001600160a01b03161480610ba057506001600160a01b0380821660009081526005602090815260408083209388168352929052205460ff165b806109c95750836001600160a01b0316610bb984610478565b6001600160a01b031614949350505050565b826001600160a01b0316610bde82610666565b6001600160a01b031614610c045760405162461bcd60e51b81526004016104dd90611b2f565b6001600160a01b038216610c2a5760405162461bcd60e51b81526004016104dd90611b99565b826001600160a01b0316610c3d82610666565b6001600160a01b031614610c635760405162461bcd60e51b81526004016104dd90611b2f565b6000818152600460209081526040808320805473ffffffffffffffffffffffffffffffffffffffff199081169091556001600160a01b0387811680865260038552838620805460001901905590871680865283862080546001019055868652600290945282852080549092168417909155905184937fddf252ad1be2c89b69c2b068fc378daa952ba7f163c4a11628f55a4df523b3ef91a4505050565b6001600160a01b038216610d265760405162461bcd60e51b81526004016104dd90611bdb565b6000818152600260205260409020546001600160a01b031615610d5b5760405162461bcd60e51b81526004016104dd90611c1f565b6000818152600260205260409020546001600160a01b031615610d905760405162461bcd60e51b81526004016104dd90611c1f565b6001600160a01b0382166000818152600360209081526040808320805460010190558483526002909152808220805473ffffffffffffffffffffffffffffffffffffffff19168417905551839291907fddf252ad1be2c89b69c2b068fc378daa952ba7f163c4a11628f55a4df523b3ef908290a45050565b6000828152600260205260409020546001600160a01b0316610e3c5760405162461bcd60e51b81526004016104dd90611c89565b6000828152600660205260409020610e548282611d36565b507ff8e1a15aba9398e019f0b49df1a4fde98ee17ae345cb5f6b5e2c27f5033e8ce782604051610e8491906113d0565b60405180910390a15050565b816001600160a01b0316836001600160a01b031603610ec15760405162461bcd60e51b81526004016104dd90611e2e565b6001600160a01b0383811660008181526005602090815260408083209487168084529490915290819020805460ff1916851515179055517f17307eab39ab6107e8899845ad3d59bd9653f200f220920489ca2b5937696c3190610f259085906112aa565b60405180910390a3505050565b610f3d848484610bcb565b610f4984848484610fd9565b6108bb5760405162461bcd60e51b81526004016104dd90611e98565b6060610f7082610a9b565b6000610f8760408051602081019091526000815290565b90506000815111610fa75760405180602001604052806000815250610fd2565b80610fb1846110da565b604051602001610fc2929190611a53565b6040516020818303038152906040525b9392505050565b60006001600160a01b0384163b156110cf57604051630a85bd0160e11b81526001600160a01b0385169063150b7a029061101d903390899088908890600401611ea8565b6020604051808303816000875af1925050508015611058575060408051601f3d908101601f1916820190925261105591810190611ef7565b60015b6110b5573d808015611086576040519150601f19603f3d011682016040523d82523d6000602084013e61108b565b606091505b5080516000036110ad5760405162461bcd60e51b81526004016104dd90611e98565b805181602001fd5b6001600160e01b031916630a85bd0160e11b1490506109c9565b506001949350505050565b606060006110e78361117b565b600101905060008167ffffffffffffffff81111561110757611107611495565b6040519080825280601f01601f191660200182016040528015611131576020820181803683370190505b5090508181016020015b600019017f3031323334353637383961626364656600000000000000000000000000000000600a86061a8153600a850494508461113b575b509392505050565b6000807a184f03e93ff9f4daa797ed6e38ed64bf6a1f01000000000000000083106111c4577a184f03e93ff9f4daa797ed6e38ed64bf6a1f010000000000000000830492506040015b6d04ee2d6d415b85acef810000000083106111f0576d04ee2d6d415b85acef8100000000830492506020015b662386f26fc10000831061120e57662386f26fc10000830492506010015b6305f5e1008310611226576305f5e100830492506008015b612710831061123a57612710830492506004015b6064831061124c576064830492506002015b600a83106103e05760010192915050565b6001600160e01b031981165b8114610acf57600080fd5b80356103e08161125d565b60006020828403121561129457611294600080fd5b60006109c98484611274565b8015155b82525050565b602081016103e082846112a0565b60005b838110156112d35781810151838201526020016112bb565b50506000910152565b60006112e6825190565b8084526020840193506112fd8185602086016112b8565b601f01601f19169290920192915050565b60208082528101610fd281846112dc565b80611269565b80356103e08161131f565b60006020828403121561134557611345600080fd5b60006109c98484611325565b60006001600160a01b0382166103e0565b6112a481611351565b602081016103e08284611362565b61126981611351565b80356103e081611379565b600080604083850312156113a3576113a3600080fd5b60006113af8585611382565b92505060206113c085828601611325565b9150509250929050565b806112a4565b602081016103e082846113ca565b6000806000606084860312156113f6576113f6600080fd5b60006114028686611382565b935050602061141386828701611382565b925050604061142486828701611325565b9150509250925092565b60006020828403121561144357611443600080fd5b60006109c98484611382565b801515611269565b80356103e08161144f565b6000806040838503121561147857611478600080fd5b60006114848585611382565b92505060206113c085828601611457565b634e487b7160e01b600052604160045260246000fd5b601f19601f830116810181811067ffffffffffffffff821117156114d1576114d1611495565b6040525050565b60006114e360405190565b90506114ef82826114ab565b919050565b600067ffffffffffffffff82111561150e5761150e611495565b601f19601f83011660200192915050565b82818337506000910152565b600061153e611539846114f4565b6114d8565b90508281526020810184848401111561155957611559600080fd5b61117384828561151f565b600082601f83011261157857611578600080fd5b81356109c984826020860161152b565b600080600080608085870312156115a1576115a1600080fd5b60006115ad8787611382565b94505060206115be87828801611382565b93505060406115cf87828801611325565b925050606085013567ffffffffffffffff8111156115ef576115ef600080fd5b6115fb87828801611564565b91505092959194509250565b6000806040838503121561161d5761161d600080fd5b60006116298585611382565b92505060206113c085828601611382565b634e487b7160e01b600052602260045260246000fd5b60028104600182168061166457607f821691505b6020821081036116765761167661163a565b50919050565b602181526000602082017f4552433732313a20617070726f76616c20746f2063757272656e74206f776e6581527f7200000000000000000000000000000000000000000000000000000000000000602082015291505b5060400190565b602080825281016103e08161167c565b603d81526000602082017f4552433732313a20617070726f76652063616c6c6572206973206e6f7420746f81527f6b656e206f776e6572206f7220617070726f76656420666f7220616c6c000000602082015291506116d2565b602080825281016103e0816116e9565b602d81526000602082017f4552433732313a2063616c6c6572206973206e6f7420746f6b656e206f776e6581527f72206f7220617070726f76656400000000000000000000000000000000000000602082015291506116d2565b602080825281016103e081611753565b601881526000602082017f41646472657373206973206e6f7420746865206f776e65720000000000000000815291505b5060200190565b602080825281016103e0816117bd565b601a81526000602082017f56616c756520686967686572207468616e2062616c616e63652e000000000000815291506117ed565b602080825281016103e081611804565b90565b6000816103e0565b601381526000602082017f54686572652077617320616e206572726f722100000000000000000000000000815291506117ed565b602080825281016103e081611853565b601881526000602082017f4552433732313a20696e76616c696420746f6b656e2049440000000000000000815291506117ed565b602080825281016103e081611897565b602981526000602082017f4552433732313a2061646472657373207a65726f206973206e6f74206120766181527f6c6964206f776e65720000000000000000000000000000000000000000000000602082015291506116d2565b602080825281016103e0816118db565b602781526000602082017f5072696365206d75737420626520657175616c20746f206d656d62657273686981527f7020707269636500000000000000000000000000000000000000000000000000602082015291506116d2565b602080825281016103e081611945565b601481526000602082017f4661696c656420746f2073656e64204574686572000000000000000000000000815291506117ed565b602080825281016103e0816119af565b60808101611a018287611362565b611a0e6020830186611362565b611a1b60408301856113ca565b611a2860608301846112a0565b95945050505050565b6000611a3b825190565b611a498185602086016112b8565b9290920192915050565b6000611a5f8285611a31565b91506109c98284611a31565b603381526000602082017f4f6e6c79206d61726b6574706c616365206f776e65722063616e20757064617481527f65204d656d626572736869702070726963652e00000000000000000000000000602082015291506116d2565b602080825281016103e081611a6b565b602581526000602082017f4552433732313a207472616e736665722066726f6d20696e636f72726563742081527f6f776e6572000000000000000000000000000000000000000000000000000000602082015291506116d2565b602080825281016103e081611ad5565b602481526000602082017f4552433732313a207472616e7366657220746f20746865207a65726f2061646481527f7265737300000000000000000000000000000000000000000000000000000000602082015291506116d2565b602080825281016103e081611b3f565b60208082527f4552433732313a206d696e7420746f20746865207a65726f2061646472657373910190815260006117ed565b602080825281016103e081611ba9565b601c81526000602082017f4552433732313a20746f6b656e20616c7265616479206d696e74656400000000815291506117ed565b602080825281016103e081611beb565b602e81526000602082017f45524337323155524953746f726167653a2055524920736574206f66206e6f6e81527f6578697374656e7420746f6b656e000000000000000000000000000000000000602082015291506116d2565b602080825281016103e081611c2f565b60006103e06118488381565b611cae83611c99565b81546008840282811b60001990911b908116901990911617825550505050565b6000610546818484611ca5565b8181101561064757611cee600082611cce565b600101611cdb565b601f821115610546576000818152602090206020601f85010481016020851015611d1d5750805b611d2f6020601f860104830182611cdb565b5050505050565b815167ffffffffffffffff811115611d5057611d50611495565b611d5a8254611650565b611d65828285611cf6565b6020601f831160018114611d995760008415611d815750858201515b600019600886021c1981166002860217865550611df2565b600085815260208120601f198616915b82811015611dc95788850151825560209485019460019092019101611da9565b86831015611de55784890151600019601f89166008021c191682555b6001600288020188555050505b505050505050565b601981526000602082017f4552433732313a20617070726f766520746f2063616c6c657200000000000000815291506117ed565b602080825281016103e081611dfa565b603281526000602082017f4552433732313a207472616e7366657220746f206e6f6e20455243373231526581527f63656976657220696d706c656d656e7465720000000000000000000000000000602082015291506116d2565b602080825281016103e081611e3e565b60808101611eb68287611362565b611ec36020830186611362565b611ed060408301856113ca565b8181036060830152611ee281846112dc565b9695505050505050565b80516103e08161125d565b600060208284031215611f0c57611f0c600080fd5b60006109c98484611eec56fe68747470733a2f2f6261666b72656968717668716c6b346a35656134686b7933666d6b3234636a3678687732726867626b6663626736666b746c6b707262656337676d2e697066732e6e667473746f726167652e6c696e6b2fa26469706673582212201b9beaa3e1491771e50853eb5ffc97438cf8efba52e95c90a0bd4459976616db64736f6c63430008110033",
  "linkReferences": {},
  "deployedLinkReferences": {}
}